:1005D7003D3D52616E67652046696E6465723D3DBB
:1005E70000686579616F647A403136332E636F6DC9
:1005F7002000202020202020202020202020202014
:10060700202000303132333435363738392E2D4DEE
:020617000000E1
:1006DD00010E0002080000040A00000000C1000421
:0506ED000F00000000F9
:100708008F1B1206F3851B90D2A4C2A3C2A2C2A259
:03071800D2A22248
:040675007D017C0087
:100679008F1BED4C60031206F3851B90C2A4C2A325
:07068900C2A2C2A2D2A2220C
:0D072A00D2A4D2A3C2A2C2A2D2A2AF90223A
:1006F3007590FFC2A4D2A3C2A2C2A2D2A2E5902047
:05070300E7FBAF9022AE
:10058F00E4F590FDFC7F3812067912071BE4FDFCA1
:10059F007F3812067912071BE4FDFC7F38120679AB
:1005AF0012071B7F381206757F081206757D017CB6
:1005BF00007F011206797D017C007F061206797D8E
:0805CF00017C007F0F02067998
:0A065200900614E493FB7D017F0184
:10065C008B1A53050153070FED6003430740430703
:09066C0080120675AF1A0207089E
:080619008F158D168A178B184E
:10062100E4F51953160153150FE5182519F582E460
:100631003517F583E493FBD394194014E515D3944E
:100641000F50E6AD16AF1512065C0519051580D9D8
:010651002286
:0E071B007FB07E15EF1FAC0670011E4C70F60D
:0107290022AD
:1006C4007D05AC051DEC60107E1C7F65EF1FAA063E
:0806D40070011E4A60EC80F485
:0106DC0022FB
:10036000AF8CEFFEAD8A7C00E42DF509EC3EF5087C
:10037000E4F58CF58AAC08AD091201B97B667A66A2
:1003800079E6783F12000EE4FBFA792078411201F9
:10039000171201F28F0D8E0C8D0B8C0AE47F587EA4
:1003A0001BFDFCAB0DAA0CA90BA80AC312034F50EE
:1003B00003300033C200900615E493FB7D01E4FF97
:1003C00012065C120652900615E493FB7D017F0233
:1003D00012065C900615E493FB7D017F0312065C18
:1003E000900615E402047EE47BE87A03F9F8AF0D89
:1003F000AE0CAD0BAC0A1202AF8F0FE47B64FAF9BE
:10040000F8AF0DAE0CAD0BAC0A1202AFE47B0AFAEA
:10041000F9F81202AFAF038F10E47B0AFAF9F8AFD4
:100420000DAE0CAD0BAC0A1202AFE47B0AFAF9F880
:100430001202AFAF038F11E47B0AFAF9F8AF0DAEE9
:100440000CAD0BAC0A1202AFAF038F12E50F900692
:100450000A93FB7D01E4FF12065C120652E5109040
:10046000060A93FB7D017F0212065CE51190060AE5
:1004700093FB7D017F0312065CE51290060A93FB55
:100480007D017F0412065C900616E493FB7D017FDC
:050490000512065C22CC
:03000B00020003ED
:05000300D200C2B6327C
:10069000D2B70000000000000000000000000000D1
:0A06A00000000000000000C2B722B5
:0A073700D28C20B6FDC28C020360D4
:1006AA007C64EF4E60131CEC60087D0A1DED60F659
:0906BA0080FAEF1F70EC1E80E9CC
:0106C3002214
:100521001206C412058F12071B7A057BD7E4FDFF63
:100531001206197A057BE87D01E4FF1206191207FC
:100541002AE4FB1206C40BBB0AF97A057BF97D018B
:10055100E4FF120619758901E4F58CF58AD2A9D256
:10056100AF7F3C7E001206AAD2B612069075131D0B
:1005710075145630B603120737E5141514700215B9
:0E05810013D3E5149400E513940050E780D3E3
:10000E00EC4D6011E8497017ED33EC3304600DE4EC
:10001E00FCFFFEFD22E933E8330470F802025E12A3
:10002E00022958046009E4CC2481500628500902A4
:10003E000268284003020265C0E0EB4A7044B980B2
:10004E0006D0E0FB020254EF4E701CBD8008EBFFA1
:10005E00EAFEE9FD80EBE98DF0A4FEE5F00200F783
:10006E00E9CDF9EAFEEBFFEF89F0A4FCE5F0CE89CD
:10007E00F0A42EFFE435F0CD89F0A42DFEE435F08A
:10008E008067EF4E7005BD80D780C3EF8BF0A4ACB8
:10009E00F0EE8BF0A42CFCE435F0F8EF8AF0A42CF3
:1000AE00E5F038FCE433CB8DF0A42CFCE5F03BF806
:1000BE00EE8AF0A42CFCE5F038F8E433CF89F0A4F6
:1000CE002CFCE5F038CF3400CE89F0A42FFFE5F0FC
:1000DE003EFEE433C98DF0A42EFEE5F039CD8AF054
:1000EE00A42FFFE5F03EFEE43DFD33D0E0FB5007CC
:1000FE000BBB000F020268EC2CFCEF33FFEE33FE5D
:06010E00ED33FD0202408A
:10011400020268EC5D046005E85904700302025EA3
:10012400120229580460F6EC4860F2EC7004FDFEFB
:10013400FF22C860DB2481C85009C39860025006BE
:100144000202659850CAF582E9294B4A7005AB82D0
:1001540002025475F0007C1A7880C3EF9BEE9AED8E
:1001640099400DC3EF9BFFEE9AFEED99FDE842F036
:10017400DC23ACF0D0E0FFD0E0FED0E0FDAB822089
:10018400E7101BEB60BAEC2CFCEF33FFEE33FEED13
:1001940033FD020240E803F830E705C0F075F000D3
:1001A400EF2FFFEE33FEED33FD40B830E7C280AAF7
:1001B40075F020800E75F010800575F0087D007EC6
:1001C400007F003392D530D503120341EC33401045
:1001D400EF33FFEE33FEED33FDEC33FCD5F0ED22CF
:0E01E400E5F0247EA2D513CC92E7CDCEFF220B
:1001F200EDD2E7CD33EC3392D524814006E4FFFE05
:10020200FDFC22FCE4CFCECDCC24E0501174FF8063
:10021200EDC3CC13CCCD13CDCE13CECF13CF047000
:07022200F030D5DE020341BC
:10022900E9D2E7C933E833F892D5EDD2E7CD33EC1B
:0702390033FC5002B2D52294
:10024000EC30E7100FBF000C0EBE00080DBD00041F
:100250000BEB6014A2D5EB13FCED92E7FD2274FFCB
:10026000FCFDFEFF22E480F8A2D574FF13FC7D8024
:03027000E480EF38
:0300000002049562
:0C049500787FE4F6D8FD7581200204DCBD
:1002730075F008758200EF2FFFEE33FECD33CDCC42
:1002830033CCC58233C5829BED9AEC99E5829840C5
:100293000CF582EE9BFEED9AFDEC99FC0FD5F0D6A2
:1002A300E4CEFBE4CDFAE4CCF9A88222B800C1B9CC
:1002B3000059BA002DEC8BF084CFCECDFCE5F0CB0A
:1002C300F97818EF2FFFEE33FEED33FDEC33FCEB43
:1002D30033FB10D703994004EB99FB0FD8E5E4F9FE
:1002E300FA227818EF2FFFEE33FEED33FDEC33FCEB
:1002F300C933C910D7059BE99A4007EC9BFCE99ADF
:10030300F90FD8E0E4C9FAE4CCFB2275F010EF2F23
:10031300FFEE33FEED33FDCC33CCC833C810D70723
:100323009BEC9AE899400AED9BFDEC9AFCE899F85E
:0E0333000FD5F0DAE4CDFBE4CCFAE4C8F922F1
:0E034100C3E49FFFE49EFEE49DFDE49CFC22CD
:10034F00EB9FF5F0EA9E42F0E99D42F0E89C45F004
:01035F00227B
:1004A100020521E493A3F8E493A34003F68001F24B
:1004B10008DFF48029E493A3F85407240CC8C3335C
:1004C100C4540F4420C8834004F456800146F6DF2B
:1004D100E4800B01020408102040809006DDE47ED8
:1004E100019360BCA3FF543F30E509541FFEE49320
:1004F100A360010ECF54C025E060A840B8E493A3E7
:10050100FAE493A3F8E493A3C8C582C8CAC583CA11
:10051100F0A3C8C582C8CAC583CADFE9DEE780BEC9
:0106F2000007
:00000001FF
