:020000040800F2
:10000000A008002001010008211F0008231F00088C
:10001000271F00082B1F00082F1F000800000000EA
:10002000000000000000000000000000331F000876
:10003000351F000800000000371F0008391F0008A6
:100040001B0100081B0100081B010008BF1F00085E
:100050001B0100081B0100081B0100081B01000810
:100060001B0100081B0100081B0100081B01000800
:100070001B0100081B0100081B0100081B010008F0
:100080001B0100081B0100081B0100081B010008E0
:100090001B0100081B0100081B0100081B010008D0
:1000A0001B0100081B0100081B0100081B010008C0
:1000B0003B1F00081B0100081B0100081B01000872
:1000C0001B0100081B0100081B0100081B010008A0
:1000D0001B010008651F00081B0100081B01000828
:1000E0001B0100081B0100081B010008DFF80CD0F1
:1000F00002F088FD00480047631E0008A0080020A9
:100100000648804706480047FEE7FEE7FEE7FEE7B1
:10011000FEE7FEE7FEE7FEE7FEE7FEE70302000874
:10012000ED0000080CB50020019000906C480068BC
:1001300040F480306A49086000BF6948006800F4F4
:10014000003000900198401C0190009818B9019867
:10015000B0F5A06FF1D16248006800F4003010B132
:100160000120009001E0002000900098012843D178
:100170005C48006840F010005A4908600846006872
:1001800020F0030008600846006840F002000860A4
:1001900053484068524948600846406848600846ED
:1001A000406840F4806048600846406820F47C1055
:1001B00048600846406840F4E81048600846006817
:1001C00040F08070086000BF4548006800F0007093
:1001D0000028F9D04248406820F0030040494860B8
:1001E0000846406840F00200486000BF3C48406854
:1001F00000F00C000828F9D10CBD10B5FFF792FFF4
:1002000010BD10B53648006840F001003449086060
:10021000084640683449084031494860084600684B
:10022000324908402E4908600846006820F48020C2
:1002300008600846406820F4FE0048604FF41F0044
:100240008860FFF7DAFF4FF000602949086010BDB1
:1002500010B5002100200022214B5B6803F00C0147
:1002600021B1042906D0082928D107E0214B224CCE
:10027000236027E01F4B204C236023E0184B5B6872
:1002800003F47010164B5B6803F48032022303EB17
:10029000904022B9194B4343174C23600DE0104B9B
:1002A0005B6803F4003323B1144B4343124C2360C7
:1002B00003E0104B4343104C236003E00D4B0E4C06
:1002C000236000BF00BF064B5B68C3F303130C4CF5
:1002D000E15C094B1B68CB40074C236010BD00005C
:1002E00000100240002002400000FFF8FFFFF6FE71
:1002F00008ED00E000127A000000002000093D0037
:100300000400002031490143314A1160704770B543
:10031000002100230F22C47804B32D4C246804F478
:10032000E064C4F5E064210AC1F10403CA404478E2
:1003300004FA03F18478144021430901254C06781E
:10034000A155047804F01F050124AC4005786D1117
:10035000AD0005F1E025C5F8004109E0047804F09E
:100360001F050124AC401C4D0678761145F8264047
:1003700070BD1A4A0A400243154B1B1F1A60704792
:1003800039B1134A121D12680243114B1B1D1A602A
:1003900006E00F4A121D126882430D4B1B1D1A60A6
:1003A0007047042808D14FF0E021096941F00401A9
:1003B0004FF0E022116107E04FF0E021096921F0E0
:1003C00004014FF0E0221161704700000000FA05BF
:1003D0000CED00E000E400E080E100E080FFFF1FA2
:1003E00010B50446CC48844208D10121042000F015
:1003F0002DFB0021042000F029FB46E0C748844281
:1004000008D10121082000F021FB0021082000F084
:100410001DFB3AE0C248844208D10121102000F0BF
:1004200015FB0021102000F011FB2EE0BD48844296
:1004300008D10121202000F009FB0021202000F03C
:1004400005FB22E0B848844208D10121402000F099
:10045000FDFA0021402000F0F9FA16E0B34884428A
:1004600008D10121802000F0F1FA0021802000F065
:10047000EDFA0AE0AE48844207D10121801500F070
:10048000E5FA0021A01500F0E1FA10BD10B5012138
:10049000084600F0DBFA0021012000F0D7FA10BD79
:1004A0002DE9F0410246002500260020002300240B
:1004B000002791F803C00CF00F0591F803C00CF071
:1004C000100CBCF1000F03D091F802C04CEA0505F6
:1004D00091F800C0BCF1000F31D0146800202BE06F
:1004E0004FF0010C0CFA00F3B1F800C00CEA03065F
:1004F0009E4220D183004FF00F0C0CFA03F7BC434F
:1005000005FA03FC4CEA040491F803C0BCF1280F7F
:1005100006D14FF0010C0CFA00FCC2F814C00AE03E
:1005200091F803C0BCF1480F05D14FF0010C0CFA53
:1005300000FCC2F810C0401C0828D1D31460B1F8E8
:1005400000C0BCF1FF0F34DD546800202EE000F144
:10055000080C4FF0010808FA0CF3B1F800C00CEADF
:1005600003069E4221D183004FF00F0C0CFA03F7D3
:10057000BC4305FA03FC4CEA040491F803C0BCF147
:10058000280F05D100F1080C08FA0CF8C2F8148005
:1005900091F803C0BCF1480F07D100F1080C4FF0EF
:1005A000010808FA0CF8C2F81080401C0828CED3C5
:1005B0005460BDE8F0814FF6FF7101800221817027
:1005C0000421C17070470246002093680B400BB1B4
:1005D000012000E0002070470146886880B2704723
:1005E00002460020D3680B400BB1012000E0002040
:1005F00070470146C86880B2704701617047416129
:1006000070470AB1016100E041617047C160704705
:100610004FF480320A43826181618261826982691A
:10062000704702460020434B18684FF6807318400D
:1006300040EA021008433F4B186070473E49C861CA
:100640007047F0B50A46002300240021002500F081
:100650000046B6F1004F02D1364EF16901E0354E49
:100660007168C0F3034583B200F44016B6F5401F2D
:1006700008D121F070612F4E766826F070662D4FFC
:100680007E6012E000F48016B6F5801F06D10326C6
:1006900006FA05F4A14341F0706106E0460D36010B
:1006A00003FA06F6B14341F0706122B1460D3601FE
:1006B00003FA06F6314300F00046B6F1004F02D1CE
:1006C0001C4EF16101E01B4E7160F0BD30B500229F
:1006D0008B071C0F0F2303FA04F2164B08338C1000
:1006E00053F824309343134C08348D1044F82530CC
:1006F00023468C1053F824308C07240F00FA04F49E
:1007000023430C4C08348D1044F8253030BD0A4981
:10071000DC3108607047000000080140000C014017
:10072000001001400014014000180140001C01406D
:10073000002001400000014000002042DF48006826
:1007400040F00100DD49086008464068DC49084087
:10075000DA49486008460068DA490840D749086025
:100760000846006820F4802008600846406820F4AD
:10077000FE0048604FF41F0088607047CF49096849
:1007800021F48031CD4A11601146096821F480219D
:100790001160B0F5803F03D0B0F5802F0ED106E098
:1007A000C649096841F48031C44A116007E0C34971
:1007B000096841F4A021C14A116000E000BF00BFF8
:1007C000704710B501460022002300204A11012A7B
:1007D00002D1BA4C236806E0022A02D1B74C236A40
:1007E00001E0B64C636A01F01F02012494401C40F2
:1007F0000CB1012000E0002010BD38B500200090B1
:100800000024002500BF3120FFF7DBFF05460098DC
:10081000401C00900098B0F5A06F01D0002DF2D0E0
:100820003120FFF7CEFF08B1012400E0002420466C
:1008300038BD01460020A14A106820F0F80040EAC7
:10084000C10010607047A049086070470246002050
:100850009A4B586820F47C1042EA01031843974BE6
:100860005860704798490866704701460020934ACF
:10087000506820F003000843506070478F4840687C
:1008800000F00C007047014600208C4A506820F0B0
:10089000F00008435060704701460020874A5068C6
:1008A00020F4E06008435060704701460020834A0E
:1008B000506820F4605040EAC1005060704729B190
:1008C0007E4A527A02437D4B5A7204E07B4A527A46
:1008D00082437A4B5A7270477B49D831086070471F
:1008E00001460020754A506820F44040084350609B
:1008F00070470021714A20321170704A82F820102E
:10090000012802D004280AD104E001216B4A2032D8
:10091000117005E00521694A2032117000E000BF26
:1009200000BF70476949086070476449096A01431C
:10093000624A11627047654944390860704730B5B2
:1009400000210022002400235C4D6D6805F00C019D
:1009500021B1042905D0082923D105E05C4D0560AB
:1009600022E05B4D05601FE0544D6D6805F4701288
:10097000524D6D6805F48034022505EB92421CB996
:10098000544D554305600BE04C4D6D6805F4003542
:100990001DB1504D5543056002E04D4D5543056076
:1009A00002E04B4D056000BF00BF444D6D6805F08F
:1009B000F0010909484D6B5C0568DD4045603F4D1D
:1009C0006D6805F4E061090A434D6B5C4568DD40E4
:1009D00085603A4D6D6805F46051C90A3E4D6B5C07
:1009E0004568DD40C560354D6D6805F44041890BB3
:1009F0003A4D6B5CC568B5FBF3F5056130BD29B1B7
:100A00002E4A526902432D4B5A6104E02B4A526927
:100A100082432A4B5A61704729B1284A926902439E
:100A2000264B9A6104E0254A92698243234B9A61DE
:100A3000704729B1214AD2690243204BDA6104E0B0
:100A40001E4AD26982431D4BDA61704729B11B4AA5
:100A5000D2680243194BDA6004E0184AD268824334
:100A6000164BDA60704729B1144A12690243134BDE
:100A70001A6104E0114A12698243104B1A617047EF
:100A800012494039086070470F49C86470470B49E4
:100A9000C87170470948406A40F080700749486251
:100AA000704701460020054A92680A400AB10120B9
:100AB00000E0002070470149887270470010024032
:100AC0000000FFF8FFFFF6FE0000424280044242B1
:100AD00000127A0000093D001400002024000020CC
:100AE00029B1504A128802434E4B1A8004E04D4A05
:100AF000128882434B4B1A8070474A48001D008879
:100B000040F010004749091D088070474548001D06
:100B100000884FF6EF7108404249091D0880704770
:100B2000002140481C300188001F008841EA004035
:100B3000704700B50246FFF7E0FF100C3949183145
:100B40000880091D0A80FFF7E1FF00BD00B50246DD
:100B5000FFF7D3FFC2F30340324908310880091D73
:100B60000A80FFF7D3FF00BD00B50246FFF7C5FFBF
:100B7000100C2C4920310880091D0A80FFF7C6FFA0
:100B800000BD00202749103109880907080B2549B5
:100B9000143109880843704700BF2248001D0088AF
:100BA00000F020000028F8D070471E48001D008883
:100BB0004FF6F77108401B49091D088000BF19480E
:100BC000001D008800F008000028F8D0704701469A
:100BD0000020144A121D12880A400AB1012000E0C8
:100BE000002070470F49091D098881430D4A121DD5
:100BF00011807047014600200A4A121D12880A40DF
:100C0000D0B2084A12880A4012B108B1012000E0AF
:100C1000002070470349091D09888143014A121DBC
:100C2000118070470028004010B50446FE488442F9
:100C300008D10121C014FFF709FF0021E014FFF7DC
:100C400005FFC4E0B4F1804F08D101210846FFF749
:100C50000AFF00210120FFF706FFB8E0F3488442B5
:100C600008D101210220FFF7FEFE00210220FFF73C
:100C7000FAFEACE0EE48844208D101210420FFF7DF
:100C8000F2FE00210420FFF7EEFEA0E0E9488442D6
:100C900008D101210820FFF7E6FE00210820FFF718
:100CA000E2FE94E0E448844208D101211020FFF7DD
:100CB000DAFE00211020FFF7D6FE88E0DF488442EC
:100CC00008D101212020FFF7CEFE00212020FFF7D0
:100CD000CAFE7CE0DA48844208D101214014FFF7C3
:100CE000B5FE00216014FFF7B1FE70E0D5488442E4
:100CF00009D10121C804FFF7A9FE00214FF400200B
:100D0000FFF7A4FE63E0D048844209D10121080521
:100D1000FFF79CFE00214FF48010FFF797FE56E08E
:100D2000CA48844209D101214805FFF78FFE0021FE
:100D30004FF40010FFF78AFE49E0C548844208D10D
:100D400001214020FFF78FFE00214020FFF78BFE9E
:100D50003DE0C048844208D101218020FFF783FE96
:100D600000218020FFF77FFE31E0BB48844208D19C
:100D700001218015FFF777FE0021A015FFF773FE14
:100D800025E0B648844209D101210804FFF75EFE40
:100D900000214FF48030FFF759FE18E0B04884423C
:100DA00009D101214804FFF751FE00214FF4003022
:100DB000FFF74CFE0BE0AB48844208D101218804C8
:100DC000FFF744FE00214FF48020FFF73FFE10BDE7
:100DD00000220288944B98420ED0994B98420BD037
:100DE000B0F1804F08D0914B984205D0904B98427B
:100DF00002D0904B984204D14FF68F731A404B8823
:100E00001A438D4B984207D08C4B984204D04FF632
:100E1000FF431A40CB881A4302808B8883850B8856
:100E20000385814B98420BD0854B984208D08B4B61
:100E3000984205D08A4B984202D08A4B984201D101
:100E40000B7A038601238382704770B50024002249
:100E50000023058C4FF6FE7635400584028C83888E
:100E6000048B4FF68F752C40B51E2C400D882C43FB
:100E7000751E2A400D892A434D882A436A4DA8428F
:100E80000BD06F4DA84208D0744DA84205D0744DC8
:100E9000A84202D0734DA84213D14FF6F7752A40ED
:100EA0004D892A434FF6FB752A408D882A434FF619
:100EB000FF652B404FF6FF552B408D892B43CD8985
:100EC0002B4383800483CD888586028470BD70B5F2
:100ED000002400220023058C4FF6EF763540058470
:100EE000028C8388048B48F6FF752C404FF6FF4533
:100EF0002C400D884FF6FF7606EA05252C434FF669
:100F0000DF752A400D8906EA05152A434D8806EA51
:100F100005152A43444DA84202D0494DA8421DD18F
:100F20004FF67F752A404D894FF6FF7606EA051584
:100F30002A434FF6BF752A408D8806EA05152A43D5
:100F40004FF6FF352B404FF2FF752B408D8906EA97
:100F500085052B43CD8906EA85052B4383800483D1
:100F6000CD880587028470BD70B50024002200235F
:100F7000058C4FF6FF6635400584028C8388848B90
:100F80004FF68F752C404FF6FC752C400D882C4386
:100F90004FF6FF552A400D894FF6FF7606EA0525E4
:100FA0002A434D8806EA05252A431F4DA84202D050
:100FB000234DA8421DD14FF2FF752A404D894FF6AF
:100FC000FF7606EA05252A434FF6FF352A408D882D
:100FD00006EA05252A434EF6FF752B404DF6FF75B0
:100FE0002B408D8906EA05152B43CD8906EA0515A8
:100FF0002B4383808483CD888587028470BD70B540
:10100000002200230024058C4EF6FF76354005842F
:10101000038C8488828B48F6FF752A404FF6FF4583
:101020002A400D8820E00000002C01400004004010
:1010300000080040000C0040001000400014004078
:1010400000340140004C0140005001400054014078
:1010500000180040001C00400020004000400140FB
:1010600000440140004801404FF6FF7606EA05259E
:101070002A434DF6FF752B400D8906EA05352B43B3
:101080004D8806EA05352B43FA4DA84202D0FA4DA9
:10109000A84208D14BF6FF752C408D894FF6FF769C
:1010A00006EA85152C4384808283CD88A0F84050C1
:1010B000038470BD828B4FF2FF331A408283828B90
:1010C0004FF6FF7303EA01231A4382837047F0B59A
:1010D0000C461546002200210026078C4EF6FF7CA8
:1010E00007EA0C070784828B018C4FF6FF7707EA2B
:1010F000043640F6FF473A404FF6FF7707EA0527E8
:101100003A434FF6FF7707EA03373A43D94FB842DD
:101110000ED0D94FB8420BD0B0F1804F08D0D74F86
:10112000B84205D0D64FB84202D0D64FB84206D109
:101130004DF6FF77394046F48057394305E047F6CE
:10114000FF57394044F48057394382830184F0BD0E
:10115000828B4FF6F3731A408283828B0A43828319
:101160007047F0B50C461546002200210026078C7A
:101170004FF6FF6C07EA0C070784828B018C4FF651
:10118000FF7707EA04264FF60C773A404FF6FF77D1
:1011900007EA03172F433A43B64FB8420ED0B64F73
:1011A000B8420BD0B0F1804F08D0B44FB84205D050
:1011B000B34FB84202D0B34FB84206D14FF6FF57F3
:1011C000394046F48077394305E04FF2FF57394004
:1011D00044F48077394382830184F0BD028B4FF25F
:1011E000FF331A400283028B4FF6FF7303EA012399
:1011F0001A4302837047F0B50C46154600220021C1
:101200000026078C4FF6EF7C07EA0C070784028B59
:10121000018C4FF6FF7707EA041640F6FF473A4085
:101220004FF6FF7707EA03373A434FF6FF7707EAAF
:1012300005273A438F4FB8420ED08F4FB8420BD09C
:10124000B0F1804F08D08D4FB84205D08C4FB842D6
:1012500002D08C4FB84206D14FF6DF77394046F0C6
:101260001007394305E04FF65F77394044F0100727
:10127000394302830184F0BD028B4FF6F3731A40A9
:101280000283028B0A4302837047F0B50C46154671
:1012900000220021068C4FF6FE773E400684028B2A
:1012A000018C4FF60C7632407E1C06EA03162E4364
:1012B0003243704EB0420ED06F4EB0420BD0B0F100
:1012C000804F08D06D4EB04205D06D4EB04202D076
:1012D0006C4EB04206D14FF6FD76314044F0010627
:1012E000314305E04FF6F576314044F001063143D5
:1012F00002830184F0BD70B505460C465D48854209
:101300000ED05D4885420BD0B5F1804F08D05B48C8
:10131000854205D05A48854202D05A48854200D1BC
:1013200000E000BF208850B92389A2886188284640
:10133000FFF7ABFFE1882846FFF79EFF25E02088F6
:1013400004280AD12389A28861882846FFF753FF21
:10135000E1882846FFF742FF17E0208808280AD1D5
:101360002389A28861882846FFF7FBFEE18828468A
:10137000FFF7EEFE09E02389A28861882846FFF77F
:10138000A6FEE1882846FFF795FE70BD2DE9F041E5
:1013900005460C4600260127608808B9022600E0B1
:1013A0000026A088012801D1022700E0012720881B
:1013B000A0B92389A28861882846FFF766FFE188E3
:1013C0002846FFF759FF23893A4631462846FFF75A
:1013D00012FFE1882846FFF701FF13E02389A28866
:1013E00061882846FFF707FFE1882846FFF7F6FEE9
:1013F00023893A4631462846FFF747FFE1882846C9
:10140000FFF73AFFBDE8F0810A884B881A438B88C2
:101410001A43CB881A430B891A434B891A438B8989
:101420001A43A0F8442070474FF6FF7181800021D5
:101430000180C1804180017270470021018041809C
:101440008180C180018141818181C18170470021FA
:1014500001804180012181800021C180018170478C
:101460000021018041808180C18001814181818191
:1014700070470000002C014000340140000400408F
:1014800000080040000C004021B1028842F0010237
:10149000028004E002884FF6FE731A400280704713
:1014A00031B1B0F8442042F40042A0F8442005E0F5
:1014B000B0F84420C2F30E02A0F8442070471AB1DD
:1014C00083890B43838102E083898B438381704747
:1014D0008182704741EA0203A0F8483070471AB190
:1014E00083890B43838102E083898B438381704727
:1014F00001894FF6F8721140018170470A460021B8
:1015000001894FF68F73194011430181704730B53F
:1015100004460D4629462046FFF7F0FF208940F09B
:101520000700208130BD2DE9F04104460D461646E6
:101530001F46602D06D13B46012231462046FFF76B
:101540005AFE05E03B46012231462046FFF79DFE4C
:1015500029462046FFF7D2FF208940F0070020816E
:10156000BDE8F08130B50C4600210189C9B24FF6C3
:10157000FF7505EA0325154325432943018130BD45
:101580002DE9F04105460E4617469846002443468D
:101590003A4631462846FFF7E5FF2C894FF6F870AA
:1015A000044044F007044FF68F70044044F0700488
:1015B0002C81BDE8F081F0B504460D4616461F4665
:1015C0003B46324629462046FFF7CCFF208940F4AF
:1015D00080402081F0BD0185828270470A4600214B
:1015E00001884FF68F731940114301807047F0B5A1
:1015F0000C4615461E460021002200230189028B5D
:10160000038C4FF6F877394021434FF6FC473A40B8
:1016100040F201173A434FF6DD773B404FF6FF7734
:1016200007EA06172F433B43018102830384F0BD81
:101630000A460021018B4FF68F7319401143018335
:1016400070470A460021018B48F6FF7319404FF698
:10165000FF7303EA02231943018370470A460021FE
:10166000818B4FF68F7319401143818370470A466F
:101670000021818B48F6FF7319404FF6FF7303EA90
:10168000022319438183704721B1028842F080020E
:10169000028004E002884FF67F731A400280704790
:1016A00021B1828842F00402828004E082884FF6F1
:1016B000FB731A408280704721B1828842F0080291
:1016C000828004E082884FF6F7731A408280704768
:1016D00021B1828842F00102828004E082884FF6C4
:1016E000FE731A40828070470A460021018B4FF634
:1016F000F77319401143018370470A460021018B9B
:101700004FF2FF7319404FF6FF7303EA02231943A8
:10171000018370470A460021818B4FF6F773194009
:101720001143818370470A460021818B4FF2FF737A
:1017300019404FF6FF7303EA022319438183704770
:101740000A460021018B4FF6FB73194011430183B8
:1017500070470A460021018B4FF6FF3319404FF6C0
:10176000FF7303EA02231943018370470A460021ED
:10177000818B4FF6FB7319401143818370470A46F2
:101780000021818B4FF6FF3319404FF6FF7303EAB8
:1017900002231943818370470A460021018B4FF6CB
:1017A0007F7319401143018370470A460021018B62
:1017B000C1F30E014FF6FF7303EA022319430183BD
:1017C00070470A460021818B4FF67F731940114301
:1017D000818370470A460021818BC1F30E014FF6C9
:1017E000FF7303EA02231943818370470A460021ED
:1017F000018C4FF6FD7319401143018470470A466E
:101800000021018C4FF6F773194011430184704792
:101810000A460021018C4FF6DF7319404FF6FF7323
:1018200003EA02131943018470470A460021018C20
:101830004FF67F7319404FF6FF7303EA0213194303
:10184000018470470A460021018C4FF6FF5319406E
:101850004FF6FF7303EA02231943018470470A46D7
:101860000021018C4FF2FF7319404FF6FF7303EA1A
:1018700002231943018470470A460021018C4DF66A
:10188000FF7319404FF6FF7303EA023319430184D3
:10189000704730B5002301248C40A3B2048C9C43D4
:1018A0000484048C02FA01F5ADB22C43048430BDEB
:1018B00030B5002304248C40A3B2048C9C430484E0
:1018C000048C02FA01F5ADB22C43048430BD70B52E
:1018D0000346002000241846183001258D40ACB284
:1018E0001D8CA5431D8409B1082909D100EB6100B5
:1018F000056825F0700505600568154305600EE074
:101900000D1FC5F34E052844056825F4E045056024
:1019100005684FF6FF7606EA02263543056070BD7E
:1019200021B1028842F00202028004E002884FF6F0
:10193000FD731A400280704721B1028842F0040210
:10194000028004E002884FF6FB731A400280704761
:1019500021B1828842F08002828004E082884FF6C2
:101960007F731A408280704702884FF6F7731A40DF
:10197000028002880A430280704782884FF68F7384
:101980001A40828082880A438280704702894FF61B
:10199000F8731A40028102890A4302817047028962
:1019A0004FF67F731A40028102890A430281704711
:1019B00081847047818570478186704701877047B1
:1019C00081877047A0F84010704702884FF6FF43A8
:1019D0001A40028002880A43028070470146888EBE
:1019E00070470146088F70470146888F704701464F
:1019F000B1F8400070470146888C70470146088D59
:101A0000704702460020138A0B400BB1012000E012
:101A100000207047CA430282704730B5024600205A
:101A200000230024158A05EA0103958905EA0104CB
:101A300013B10CB1012000E0002030BDCA43028286
:101A40007047000010B50446FB48844209D10121CB
:101A50008803FEF7FBFF00214FF48040FEF7F6FFFE
:101A600032E0F648844209D101214804FEF7FBFF29
:101A700000214FF40030FEF7F6FF25E0F0488442E5
:101A800009D101218804FEF7EEFF00214FF48020E8
:101A9000FEF7E9FF18E0EB48844209D10121C804B0
:101AA000FEF7E1FF00214FF40020FEF7DCFF0BE022
:101AB000E548844208D101210805FEF7D4FF002142
:101AC0004FF48010FEF7CFFF10BD2DE9F04786B030
:101AD00005460E460024A24600BFA1460027B08955
:101AE00000B100BF2F462C8A4CF6FF700440F088EE
:101AF00004432C82AC894EF6F3100440B08831893F
:101B00000843718908430443AC81AC8A4FF6FF4017
:101B10000440B0890443AC8201A8FEF710FFC64818
:101B2000874202D1DDF810A001E0DDF80CA0A88901
:101B300000F4004040B10AEBCA0000EB0A10316823
:101B40004900B0FBF1F807E00AEBCA0000EB0A100D
:101B500031688900B0FBF1F86420B8FBF0F00401B3
:101B60002009642101FB1089A88900F4004040B1DC
:101B7000322000EBC900B0FBF1F000F00700044395
:101B800008E0322000EB09106421B0FBF1F000F016
:101B90000F0004432C8106B0BDE8F0874FF41651C6
:101BA000016000218180C18001810C2141810021DF
:101BB0008181704710B502460020108A4FF2FF0362
:101BC00018400B884C8823438C882343CC882343BC
:101BD0001843108210BD0021018041808180C180A6
:101BE000704721B1828942F40052828104E08289E7
:101BF0004DF6FF731A4082817047F0B5034600240A
:101C000000260025002040F66A17B94200D100BF27
:101C10001846C1F3421401F01F06012707FA06F522
:101C2000012C01D10C3004E0022C01D1103000E075
:101C300014301AB107682F43076002E00768AF430A
:101C40000760F0BD1AB1838A0B43838202E0838A66
:101C50008B4383827047028A4FF6F0731A400282E8
:101C6000028A0A430282704782894FF2FF731A4048
:101C7000828182890A438281704721B1828942F040
:101C80000202828104E082894FF6FD731A4082814C
:101C90007047028A4FF6DF731A400282028A0A43B3
:101CA0000282704721B1028A42F48042028204E03B
:101CB000028A4BF6FF731A4002827047C1F3080292
:101CC0008280704701468888C0F308007047818988
:101CD00041F0010181817047028BD2B20283028BF5
:101CE00042EA012202837047028B02F47F420283A0
:101CF000028B0A430283704721B1828A42F020029C
:101D0000828204E0828A4FF6DF731A408282704733
:101D100021B1828A42F01002828204E0828A4FF668
:101D2000EF731A408282704721B1828A42F0080222
:101D3000828204E0828A4FF6F7731A4082827047EB
:101D400021B1828942F40042828103E08289C2F398
:101D50000E028281704721B1828A42F4006282823F
:101D600004E0828A4FF2FF731A4082827047828AAF
:101D70004FF6FB731A408282828A0A43828270473E
:101D800021B1828A42F00202828204E0828A4FF606
:101D9000FD731A408282704702460020B1F5007F31
:101DA00000D100BF13880B400BB1012000E00020E0
:101DB000704701F40072B2F5007F00D100BFCA4342
:101DC0000280704770B502460024002300250020E1
:101DD00040F66A16B14200D100BFC1F3421501F0CE
:101DE0001F03012606FA03F3012D02D19689334021
:101DF00006E0022D02D1168A334001E0968A334074
:101E00000C12012606FA04F41688344013B10CB102
:101E1000012000E0002070BD10B50022002340F634
:101E20006A14A14200D100BF0A1201249440A3B257
:101E3000DC43048010BD0000003801400044004035
:101E400000480040004C0040005000402D49002058
:101E500004E004C92C4B43F82020401C0328F8DB85
:101E6000704700F083FA00F0A7FA00F0E6F80022CD
:101E700040F225512548FFF7C0FE00F016FB002078
:101E80002349086000BF22480068B0F57A6FFAD392
:101E9000012240F225511D48FFF7AFFE00201C49EA
:101EA00008601C490860FFF7D1FF4FF480711A48A1
:101EB000FEF7A3FB24E00121184800F098FA98B936
:101EC000114800F0B2F920211348FEF796FB0020DC
:101ED0000F49086000BF0E480068B0F5FA7FFAD3DA
:101EE00020210D48FEF78BFB0A48006847F230516D
:101EF000884205D9002007490860034800F09DF991
:101F0000D9E70000E8F7FF1F9402002000380140E5
:101F10003000002034000020000C01400008014087
:101F2000704700BFFEE700BFFEE700BFFEE700BF4F
:101F3000FEE7704770477047704710B5012188076A
:101F4000FFF76BFD68B12B480068401C2949086009
:101F500029480068401C2849086001218807FFF7CC
:101F60006DFD10BD10B500BF40F225512348FFF7AD
:101F700029FF60B12148001D0088C1B220480288B5
:101F80000088401C1E4B18801E48815416E040F209
:101F900024411A48FFF716FF80B118480088C4B2E0
:101FA0001648001D0088C4B201201749087000209F
:101FB0001449134A128888541149088010BD10B57D
:101FC0000120FEF717FE38B10120FEF723FE0120A5
:101FD0000E490860FEF7E0FD0220FEF70BFE38B167
:101FE00001200B4908600220FEF714FEFEF7D4FD25
:101FF00010BD0000300000203400002000380140F7
:102000002A000020040100202C000020580000209D
:102010005C00002008B54FF4A060FEF773F925209E
:102020008DF8000001208DF801008DF802008DF878
:1020300003006846FEF76BF908BD00B585B00121C5
:102040000420FEF7E9FC01218803FEF7E5FC4FF4CC
:102050000070ADF8100018208DF8130003208DF8E3
:10206000120004A96648FEF71BFA4FF48060ADF831
:10207000100004208DF8130004A96148FEF710FA3F
:102080004FF4E13000900020ADF80400ADF80600F8
:10209000ADF80800ADF80C000C20ADF80A00694658
:1020A0005848FFF712FDFFF7B5FF012240F2244127
:1020B0005448FFF7A2FD012240F225515148FFF795
:1020C0009CFD01214F48FFF78CFD05B000BD70B5A8
:1020D00004460D46E1B24B48FFF7F0FD00BF8021FA
:1020E0004848FFF759FE0028F9D0204670BD10B5CA
:1020F000044600BF20214348FFF74EFE0028F9D0D8
:102100004048FFF7DFFD10BD2DE9F04F87B0814655
:10211000002400200690059000210D460E464846FA
:1021200000F0F9F9049000BF42E019F804002E28ED
:1021300003D101200590069438E0059808B306996C
:10214000601A00F0B0FB02460B46CDE9000100200A
:102150002D4901F0D7F80746884619F80410A1F177
:10216000300000F0A0FB3A464346CDE9020100F002
:102170002BFB82462A46334600F00DFA05460E46F2
:1021800014E00022204B2846314600F0ABFA074607
:10219000884619F80410A1F1300000F084FB824653
:1021A0003A46434600F0F7F905460E46601C84B2F5
:1021B00004988442B9DB2846314600F09EFB07B004
:1021C000BDE8F08F10B50DE010480078012809D166
:1021D00000200E4908700E490E4A128888540D4995
:1021E000088000E0F0E700BF09490BA000F08CFD7B
:1021F0000748FFF789FF044600F066FB10BD0000AA
:102200000008014000380140000024402C0000205C
:10221000040100202A00002061527842756666653C
:10222000723D25730A000000704710B5044638A0BF
:1022300094E80E0000F068FD10BD10B5A4B004468F
:10224000282101A800F03EF964210BA800F03AF91A
:1022500039A10BA800F041F9A06800903CA101A8A9
:10226000D4E9002300F060FD01A90BA800F035F9C6
:102270000BA93BA000F048FD24B010BD70B5064688
:102280000C462146304600F034F9051E06D02046A3
:1022900000F041F92844051D284670BD0020FCE7E8
:1022A00030B589B004462FA12046FFF7E7FF08901C
:1022B00090B1002008E008990B780146401C0DF809
:1022C00001300899491C0891089909782229F2D10E
:1022D00000210DF8001000BF0A2208A9684600F08E
:1022E00021F90546FEF725FC09B030BD70B506465C
:1022F0000C462146304600F0FCF8051E06D020466C
:1023000000F009F92844C51C284670BD0020FCE7F0
:102310007B2274797065223A22676F616C222C22CD
:10232000736E223A222530387825303878253038B7
:1023300078227D0A000000007B2274797065223AC1
:102340002270696E67222C22736E223A22000000EE
:10235000253038782530387825303878227D0A00C5
:102360002573000074696D650000000008B5012147
:102370000820FEF751FB2020ADF8000010208DF85A
:10238000030003208DF8020069460A48FEF788F82A
:102390004FF48070ADF8000069460648FEF780F8FB
:1023A00020210448FEF72BF94FF480710148FEF715
:1023B00026F908BD000C014008B501211420FEF7E4
:1023C0002BFB0120ADF8000004208DF803006946C6
:1023D0001548FEF765F84FF40050ADF800000420F2
:1023E0008DF8030069461148FEF75AF808BD70B52C
:1023F00004460D4629462046FEF7E5F8012810D18F
:1024000000200B49086000BF094800680528FBD37D
:1024100029462046FEF7D7F8012800D170BD0020DC
:10242000FCE70020FAE7000000080140001001402E
:102430003000002008B54FF4E060FDF763FF1C207A
:102440008DF8000002208DF8010003208DF80200B5
:1024500001208DF803006846FDF759FF08BD0EB551
:1024600001210846FEF7E5FA40F2E730ADF8040036
:102470004720ADF800000020ADF80600ADF80200DE
:102480008DF8080069464FF08040FEF7A1FC01215D
:102490008807FFF7BFFA012211469007FFF70FF8F0
:1024A00001218807FEF7F0FF0EBD10B5FFF7C2FF50
:1024B000FFF7D5FF10BDD2B201E000F8012B491E95
:1024C000FBD270470022F6E710B513460A460446D1
:1024D0001946FFF7F0FF204610BD421E12F8013FDB
:1024E000002BFBD111F8013B02F8013B002BF9D185
:1024F000704730B505462A460B4612F8010B13F813
:10250000014B08B1A042F8D01CB1002802D06D1CCC
:10251000F1E7284630BD421C10F8011B0029FBD111
:10252000801A70472DE9F05F93460F4680460446B7
:10253000002600F021FCD0F80090824614F8015BE0
:102540002DB100F049FA0068405DC007F6D12B2D8F
:1025500002D02D2D1AD0641E0021CAF800105A4650
:102560003946204600F03CFA014627B13868A042BF
:1025700001D1C7F80080DAF80000022809D0CAF8B3
:102580000090700505D54842BDE8F09F46F480668E
:10259000E2E70846F8E72DE9FE4F804681EA0300AE
:1025A000C00F0C46009021F0004123F00045B8EB2D
:1025B0000200A94105D24046214690461C460B46E2
:1025C000024623F00040104347D0270DC7F30A000E
:1025D000C3F30A510290401A019040286BDAC3F30A
:1025E000130040F4801B0098924620B10023D2EBE8
:1025F000030A63EB0B0B01985946C0F140025046A9
:1026000000F0C8F906460D4650465946019A00F0BA
:10261000D0F910EB08006141002487EA115284EAE6
:10262000E7731A4340D0009A62B3019A012A4FEA35
:10263000075215DC001B61EB02014FF0004202EA79
:102640000752CDE90042001C41F5801132462B466D
:1026500000F05BFA03B0BDE8F08F40462146F9E791
:10266000001B61EB0201001C41F5801300185B4167
:102670002018A2F5001747EB030140EAD570B61900
:102680006D4111E06D084FEA360645EAC0754FEA24
:102690000752001B61EB0201001C41F58011490843
:1026A0004FEA30000019514132462B4603B0BDE8D5
:1026B000F04F00F01BBA0098012240000023D0EB3D
:1026C000020263EBE073009821464FEAE074B8EB36
:1026D000000061EB0401E9E783F000435BE781F070
:1026E000004158E72DE9FE4F81EA030404F000445D
:1026F00021F0004100944FF0000B23F0004350EA1A
:1027000001045ED052EA03045BD0C3F30A54C1F360
:102710000A552C44A4F2F3340194A0FB0254C1F3F3
:10272000130141F48011C3F3130343F4801301FB3D
:10273000024400FB034E840A970A44EA815447EAA4
:102740008357A4FB076802958D0A05FB07854FEAAE
:10275000932C04FB0C542705029D4FEA065847EAC8
:102760001637B5EB08056EEB070C870E920E47EA9D
:10277000811742EA8312A7FB0201B6EB0B0164EB5F
:1027800000042B0D43EA0C335E1844EB1C50DA4670
:102790005146E7FB0201C5F313044FEA0B3343EA4A
:1027A00014534FEA0432019C43EA0603A4F10C04DB
:1027B0000294009CCDE900B400F0A7F903B0BDE895
:1027C000F08F00200146F9E72DE9F04D81EA03047E
:1027D00004F0004B21F0004514464FF0000A23F0AE
:1027E000004150EA050220D054EA01021DD0C5F391
:1027F0000A570246C5F31303C1F31300C1F30A5687
:1028000040F4801543F48013A7EB0608101BD6464E
:1028100008F2FD3873EB050002D308F1010801E06E
:1028200092185B41B8F1000F03DA00200146BDE8C1
:10283000F08D00204FF48011064684460EE0171BF1
:1028400073EB050705D3121B63EB050306434CEA44
:10285000010C49084FEA300092185B4150EA010729
:10286000EDD152EA030012D082EA040083EA0501A6
:10287000084305D0101BAB4106D20122002306E01D
:1028800000224FF0004302E06FF0010253101AEBF8
:1028900006004CEB085110EB0A0041EB0B01BDE8C0
:1028A000F04D00F023B90EB5C10F80EAE070084486
:1028B000CA07002140F233438DE80E000A460B465A
:1028C00000F023F903B000BD00F0004220F000400A
:1028D000C10DC0F3160040F400007F2901DA00208A
:1028E0007047962903DCC1F19601C84001E0963992
:1028F0008840002AF4D04042704701F0004330B4D1
:1029000021F0004150EA010206D00A0DA2F56072E2
:10291000C1F31301002A02DC30BC00207047440FD1
:1029200044EAC104C100E01830BC00EBC25000F022
:10293000A6B82DE9F05F0546002092469B468846E2
:102940000646814640241BE028464146474622462B
:1029500000F06AF953465A46C01A914110D3114605
:102960001846224600F016F82D1A67EB01084F466C
:1029700022460120002100F00DF817EB00094E411E
:10298000201EA4F10104DFDC484631462A464346B6
:10299000BDE8F09F202A04DB203A00FA02F1002073
:1029A00070479140C2F1200320FA03F3194390408D
:1029B0007047202A06DBCB17203A41FA02F043EA9F
:1029C000E07306E041FA02F3D040C2F120029140E8
:1029D0000843194670470000004870473C3E000815
:1029E0002DE9F05F82460078002715468B460AF1F4
:1029F0000104B946302801D09DB113E014F8010B51
:102A00000127782803D0582801D045B10AE00DB13C
:102A1000102D07D10027102514F8010B02E008251E
:102A200000E00A250026B0460EE005FB080005FB85
:102A300006F1012701EB10461FFA80F8B6F5803F3A
:102A400000D3B94614F8010B294600F0FDF8002820
:102A5000EBDABBF1000F05D00FB1641E00E0544665
:102A6000CBF80040B9F1000F06D000F085F9022143
:102A70000160C81EBDE8F09F48EA0640FAE7002959
:102A8000A8BF7047401C490008BF20F001007047F4
:102A900010B4B0FA80FC00FA0CF050EA010404BF54
:102AA00010BC704749B1CCF1200421FA04F411FAAA
:102AB0000CF118BF012121430843A3EB0C01CB1DEE
:102AC0004FEA00614FEA102042BF002010BC70475F
:102AD00000EBC35010440029A4BF10BC7047401C39
:102AE000490008BF20F0010010BC704710B5141E4B
:102AF00073F1000408DA401C41F1000192185B41B7
:102B00001A4301D120F0010010BD2DE9F04D92468D
:102B10009B4611B1B1FA81F202E0B0FA80F22032A4
:102B20009046FFF737FF04460F4640EA0A0041EAA5
:102B30000B0153465A46084313D0114653EA01008D
:102B400019D0C8F14002504600F06EF805460E4616
:102B5000504659464246FFF71DFF084305D0012065
:102B600004E020463946BDE8F08D0020054346EAE2
:102B7000E0762C4337430A986305E40AA0EB08008B
:102B80000022FD0A44EA47540A3002D500200146DB
:102B9000E9E7010510196941DDE9084500196941B6
:102BA000BDE8F04DA2E770B521F0004303430CD01F
:102BB000C1F30A550024D5EB040564EB0403D617D2
:102BC000AD1AB34102DB0020014670BD201841EB75
:102BD000025170BD30B5041E71F1000404DB4FF0EA
:102BE0000044404264EB0101141E73F1000405DB54
:102BF0001C464FF00043524263EB0403994208BF66
:102C0000904230BD064C074D06E0E06840F00103FD
:102C100094E8070098471034AC42F6D3FDF76AFAFF
:102C2000203F0008403F0008202A04DB203A21FA18
:102C300002F00021704721FA02F3D040C2F12002D5
:102C400091400843194670473A2800D2303820F0A6
:102C50002002412A01D3A2F13700884201D34FF06C
:102C6000FF3070472DE9F04D00231A461B1A8A41A8
:102C700003DB00200146BDE8F08DC1F30A52C1F329
:102C8000130141F480154FF0000BD10702D1001859
:102C90006D41521E0027044640F2FF11384601EBF9
:102CA000620A3E468046024600204FF48011FFF73C
:102CB000BBFFC2197141BB1846EB0100B4EB030C1A
:102CC00075EB000C04D3E41A65EB000517460E46BD
:102CD000241908F101006D4180463428E3DDF9191B
:102CE00046EB0600091BA84103D24FF0FF32134602
:102CF00001E0002213461BEB070046EB0A51BDE83A
:102D0000F04DFFF7F3BE00000FB4054B10B503A95B
:102D1000044A029800F0C0F810BC5DF814FB0000F3
:102D2000CF200008FC0000200FB4084B10B504A908
:102D300002AA039800F0B0F8044602A9002000F0AF
:102D4000DCFA204610BC5DF814FB0000FB320008E2
:102D5000490050EAC12018BF04204A0D18BF40F0B6
:102D6000010040F2FF72B2EB515F08BF40F0020079
:102D7000012808BF05207047004870470001002067
:102D80002DE9F0414F1E00EBC7010446D1E90001D7
:102D900015461E4637F006020DD02A463346FFF789
:102DA000A1FC7F1E04EBC703D3E90023FFF7F3FB6D
:102DB00037F00602F1D1022F25D0042F13D0062FB1
:102DC00018BFBDE8F0812A463346FFF78BFCD4E9F3
:102DD0000A23FFF7E0FB2A463346FFF783FCD4E9DA
:102DE0000823FFF7D8FB2A463346FFF77BFCD4E9DC
:102DF0000623FFF7D0FB2A463346FFF773FCD4E9DE
:102E00000423FFF7C8FB2A463346FFF76BFCD4E9DF
:102E10000223FFF7C0FB2A463346FFF763FCD4E9E1
:102E20000023BDE8F041FFF7B6BB000000221346C7
:102E300010460149FFF7C8BC0000F03FFFF7ABBBED
:102E40000022134610461146FFF7BEBC40F2013285
:102E500000204FF0E041FFF7A6BE0000024A00202C
:102E60001107FFF7A0BE000001FDFFFF02E008C848
:102E7000121F08C1002AFAD170477047002001E0F4
:102E800001C1121F002AFBD17047000001490860F0
:102E900070470000000100202DE9FF4F8DB00F4664
:102EA0000546002606E025280BD0DDE90F129047E5
:102EB0006D1C761C28780028F5D111B03046BDE88D
:102EC000F08F0024A246A1460122EC4900E0044311
:102ED00015F8013F203B02FA03F00842F7D12878A9
:102EE0002A2810D06FF02F022878A0F1300109298C
:102EF00014D80AEB8A0102EB410144F0020400EB12
:102F0000010A6D1CF0E701CF5FEA000A03D544F423
:102F10000054CAF1000A44F002046D1C28782E28DF
:102F200017D115F8010F44F004042A280ED06FF0D1
:102F30002F022878A0F1300109290AD809EB89016C
:102F400002EB410100EB01096D1CF2E757F8049B0D
:102F50006D1C28786C280FD006DC4C2817D0682808
:102F60000DD06A2814D104E0742810D07A280FD12B
:102F70000DE044F400140AE044F4801401E044F449
:102F800040146978814202D104F580146D1C6D1CD7
:102F90002A786E2A1FD00CDC632A31D004DC002A88
:102FA0008BD0582A11D1A3E0642A68D0692A0CD1A9
:102FB00065E0732A2ED004DC6F2A73D0702A04D106
:102FC0009BE0752A6FD0782A6ED01046DDE90F128B
:102FD0009047761C50E1C4F30250022806D0032823
:102FE00009D0042801CF09D0066045E101CFF117CF
:102FF000C0E9006140E101CF06803DE106703BE1A0
:1030000017F8040B8DF8000000208DF80100EB4646
:10301000012003E057F804BB4FF0FF3061074FF089
:10302000000102D40DE008F10101884649450FDA9C
:103030008045F8DB1BF808100029F4D108E008F1FE
:10304000010188468142FADB1BF808100029F6D1FD
:10305000DDE90F23AAEB08008146214600F036F98E
:10306000304400EB080604E0DDE90F121BF8010B09
:103070009047B8F10108F7D221464846F7E00A2107
:10308000C4F302534FF0000B0891022B04D001CF80
:10309000C117032B09D00AE0FF1D27F00707F7E847
:1030A000020108E032E01FE020E000B2C117042B6B
:1030B00001D140B2C117031E71F1000307DA4FF0CE
:1030C000000CD0EB0C006CEB01012D2302E023057A
:1030D00004D52B238DF82430012303E0E30701D02E
:1030E0002023F7E7984658E00A2110E010210EE06F
:1030F00010204FF0000B08900CE010214FF0000B57
:1031000044F004044FF00809089103E008214FF04F
:10311000000B0891C4F30253022B04D001CF00210D
:10312000032B06D006E0FF1D27F00707F7E8020192
:1031300003E080B2042B00D1C0B24FF00008230797
:103140002BD5702A07D0DDF820C08CF0100C5CEA7B
:103150000B0C05D00EE040238DF82430012308E04D
:1031600050EA010306D030238DF824308DF8252055
:1031700002239846DDF820C08CF0080C5CEA0B0CAA
:103180000BD150EA010301D1630706D530238DF836
:1031900024304FF00108A9F10109582A04D038A2BF
:1031A0000B9208AA0A920BE03AA2F9E75B46089A4A
:1031B000FFF7BFFB0B9B9B5C0A9A521E0A9213708F
:1031C00050EA0102F2D10A98ADEB000000F1200BA9
:1031D000600702D524F4803401E04FF00109D9459D
:1031E00002DDA9EB0B0000E0002000EB0B014144E5
:1031F0000890AAEB010AE00306D4DDE90F2321467B
:10320000504600F063F806444FF0000908E009A9B1
:1032100011F80900DDE90F12904709F10109761C48
:10322000C145F4DBE0030CD5DDE90F232146504610
:1032300000F04CF8064404E0DDE90F12302090471E
:10324000761C0899481E08900029F5DC08E00A98C9
:103250000A990078491C0A91DDE90F129047761C03
:10326000BBF10001ABF1010BF1DC21465046DDE979
:103270000F2300F019F806446D1C1BE60928010015
:1032800030313233343536373839616263646566DC
:10329000000000003031323334353637383941429E
:1032A00043444546000000002DE9F0410446002556
:1032B0001E461746880404D405E039462020B0474E
:1032C0006D1C641EF9D52846BDE8F0812DE9F0415A
:1032D000044600251E469046C80301D5302700E06D
:1032E0002027880404D505E041463846B0476D1CC8
:1032F000641EF9D52846BDE8F0810A68531C0B60AE
:10330000107070472DE9F04D1D460C4698B01746D9
:1033100021F0004123F00043002814BF4FF0010CBE
:103320004FF0000C0CEB440CFE4A0CEB02064FEA8B
:10333000620C66452BD33E0018BF012606EB4506FE
:103340001644F94A964222D3F84A53EA070C02D0AF
:10335000944205D148B918B000201146BDE8F08D5F
:10336000002808BF4FF0000C01D04FF0010C0CEB0F
:10337000440212F5001F0AD8002F14BF4FF0010CB1
:103380004FF0000C0CEB450212F5001F07D918B0E6
:103390003A462B462146BDE8F04DFFF74FBD0022CF
:1033A000DFF88CA3002CB8BF534526DADFF884C3BE
:1033B0006345A8BF022220DADFF870C39C451CDCFD
:1033C000DFF874C30CEB235CBCF1140F08DDCCF107
:1033D000340627FA06FC0CFA06F6BE420DD108E0C8
:1033E0005FB9CCF1140623FA06FC0CFA06F69E42ED
:1033F00003D10CF00102C2F1020251EA000C19D112
:10340000002D17DA002C18BF022A01D0012A07D09C
:103410000220FFF73BFD18B0BDE8F04DFFF706BDF9
:103420000220FFF733FDFFF701FD18B081F00041E6
:10343000BDE8F08DB7F1000C6CD1534525D104F1F6
:10344000804212F5801201BF00280020B74918B051
:1034500008BFBDE8F08DB548884207DC002DA1BF4C
:103460006046294618B0BDE8F08D07E0281E05DA51
:1034700080F0004118B06046BDE8F08DAF49794456
:10348000D1E9000118B0BDE8F08DDFF8A0C26345B6
:1034900025D1002D1FDA19B1514512D1D8B909E053
:1034A000002840F0EC82A24A214618B062F31E01C7
:1034B000BDE8F08D0020214618B060F31E01BDE884
:1034C000F08D08DA18B02346BDE8F04D0246002022
:1034D0006146FFF779B918B02146BDE8F08D514536
:1034E00018DAB5F1804F0DD0A5F1005CBCF1FF5C9E
:1034F00010D1B4F1000C0DDB18B06146BDE8F04D01
:1035000000F0ECBB234618B00246BDE8F04D19466A
:10351000FFF7E8B8060024F0004C3BD1D9B1514583
:1035200033D1002C06DD002DA1BF0020514618B07C
:10353000BDE8F08D002C01DD002D1BDB002C13DA23
:10354000002D11DB012A4FF0000014BF78497C499F
:1035500018B0BDE8F08D022A18BF002C0AD0012A4D
:1035600008D1002C06DA0AE0002CB8BF002D11DAD1
:10357000012A04D0002018B00146BDE8F08D18B033
:1035800000204FF00041BDE8F08DA1F14050B0F1B6
:103590007F601AD0012000EBE47050EA020421D0D1
:1035A000624C521E4FF0000B104304BF4FF0000B53
:1035B000644C654883427CDD644A654893421FDD64
:1035C000884217DB002D25DB37E0002C00DA4AB1FA
:1035D000022A0CBF01204FF0FF3018B0BDE8F04DBB
:1035E000FFF761B90120FFF751FC18B0BDE8F04DBD
:1035F000FFF726BC4D4A8A4202DC002D0ADC1CE0A3
:10360000814202DA002D18DA04E0484B994220DDAD
:10361000002D12DD0220FFF739FCFFF717FC0546ED
:103620000E460022534658462146FFF75BF818B075
:1036300066F31E012846BDE8F08D0220FFF726FC48
:10364000FFF70CFC0A46214618B062F31E01BDE8E4
:10365000F08D002230466146FFF73EF880460E4668
:103660006FF00102FFF79FFA4FF05532394BFFF729
:1036700036F842463346FFF735F80022364BFFF75F
:103680002EF8824642463346049110461946FFF70B
:1036900029F85246049BFFF725F88A4600904FF020
:1036A000C0422E4B40463146FFF71CF82C4A2B4BAC
:1036B00000E027E0CDE9060151460098FFF712F837
:1036C00082460191274A284B40463146FFF70AF8C7
:1036D0005246019BFFF700F882460B4602460591D1
:1036E000DDE90601FEF757FFDDE9062300268846DF
:1036F0003046FEF7F1FF5246059BFEF7F0FF02460B
:1037000000F07EB90020B1F5801F07DA352230467F
:103710006146FFF748FA06466FF0340000EB21508F
:1037200024E00000FFFF1F00FFFF0F000000F03F3C
:103730000000F07F0000404301FCFFFF2E09000065
:103740000000F0FF0000F0BF0000E0410000F04387
:10375000FFFFEF3F5555D53F0000E03F4715F73FCE
:10376000FE822B6544DF5DF80BAE543EA0F2FF30C5
:103770000190C1F3130040F07F6141F0405102918C
:10378000FE498842D8BF002004DDFD498142C8BF00
:10379000012001DD0D9008E000200D900198401CF3
:1037A00001900298A0F5801002900299F5487844A3
:1037B0000B910D9900EBC100D0E900230F93304627
:1037C0000A920B99FEF788FFCDE90601DDE90A218F
:1037D00030460F9BFEF7DFFE02460B460020EA490B
:1037E000FEF7F2FF059102460B460090DDE9060167
:1037F000FEF778FF1490E5488A464FF000087844B9
:103800000299006812904FF0005040EA61010D9853
:103810000F9B01EB804000F5002109910A9A129854
:10382000FEF75AFF32460B9BFEF759FF42465346BE
:10383000FEF758FF0646029140465146099B129AF0
:10384000FEF750FFDDE90623FEF749FF3246029BF3
:10385000FEF742FF059B009AFEF744FF0091149A81
:103860000490534610461946FEF73CFF06460246B2
:10387000C7480B46029106217844FFF781FACDE94B
:103880000510029B324610461946FEF72BFFDDE974
:103890000532FEF727FF0591064653464046194676
:1038A000149AFEF778FE009B049AFEF71BFF32463F
:1038B000059BFEF770FECDE90510424653461046C3
:1038C0001946FEF70FFF0022B24B02910A90FEF755
:1038D00062FEDDE90532FEF75EFE0E464246AD4B66
:1038E0004046FEF7F9FE029B0A9AFEF7F5FEDDE977
:1038F0000532FEF7F4FE424602910A903346104626
:103900005146FEF7EFFECDE906015346149A02999F
:103910000A98FEF7E7FE8A4602903346424600992F
:103920000498FEF7DFFE5346029AFEF734FE824605
:103930000B4602460591DDE90601FEF72CFEDDE9A6
:103940000623002088460646FEF7C6FE5246059B23
:10395000FEF7C5FE824609914FF060428E4B30461D
:103960004146FEF7BFFE049006918C4A8A4B5046B2
:103970000999FEF7B7FE82460291894A894B304683
:103980004146FEF7AFFE5246029BFEF704FE864B11
:103990007B440D9A03EBC203D3E90023FEF7FBFD42
:1039A0000E9007910198FEF77EFF0591DDE9061361
:1039B00082460E9A0498FEF7EEFD7C4A7A440D9BEF
:1039C00002EBC303D3E9002300930292FEF7E3FD69
:1039D0005246059BFEF7DFFD0026884652463046DC
:1039E000059BFEF779FE009B029AFEF775FE069B8B
:1039F000049AFEF771FE079B0E9AFEF770FE0246D0
:103A000000200B46029038462946FEF76BFE8246A0
:103A100001912B4638461946029AFEF75DFE324662
:103A20004346FEF75FFE5246019BFEF7B4FD074694
:103A30008A463246434629460298FEF753FE05461B
:103A40000E463A465346FEF7A6FD594A884691422D
:103A500021DBA8EB020353EA000210D12A463346C9
:103A6000FEF73AFECDE90401524A534B384651461F
:103A7000FEF791FDDDE90423FFF7ACF821D2022027
:103A8000FFF704FAFFF7E2F90A46214618B062F39D
:103A90001E01BDE8F08D494B28F000429A4210D338
:103AA000474A08EB020353EA00027FF4C6AD2A46F8
:103AB0003346FEF711FE3A465346FFF78BF87FF682
:103AC000BCAD0022019228F000403E493E4A01EB85
:103AD0002051824223DA481C4FF4801121FA00F071
:103AE00040443A4AC0F30A517A44394BA1F2FF31BB
:103AF000CB4020EA0303C0F3130040F48010C1F16F
:103B00001401C84012680190B8F1000FBCBF4042D8
:103B1000019028463146FEF7DFFD05460E462A464F
:103B2000334638465146FEF736FD4FF00008424610
:103B3000284B40460591FEF7D5FDCDE90601264A02
:103B4000264B40460599FEF7CDFD009102902A468E
:103B5000334640460599FEF7BFFD3A465346FEF709
:103B6000BEFD1F4A1F4BFEF7BDFD009B029AFEF7EC
:103B700012FD0746884602460B4635E08E98030044
:103B80007AB60B00760500000000F03FAE0500009D
:103B9000DC0400000000084009C7EE3FFD033ADCEA
:103BA000F5015B14E02F3EBEB40300007803000073
:103BB00000009040FE822B654715973C00CC90405A
:103BC00000346F3F01FCFFFF0000E03FC402000033
:103BD000FFFF0F00432EE63F396CA80C615C20BE4E
:103BE000EF39FAFE422EE63FDDE90601FEF7D3FC8F
:103BF000DDE9062305460E46FEF76EFD3A464346CE
:103C0000FEF76DFD0F462A463346009010461946D2
:103C1000FEF768FD824602462E4888460B4605217F
:103C20007844FFF7ADF852464346FEF75BFD2A465F
:103C30003346FEF754FD80468A463B4628463146C9
:103C4000009AFEF74FFD3B46009AFEF7A4FC069152
:103C5000009000224FF0804340465146FEF73CFD65
:103C60000F460C904246534628463146FEF73AFD31
:103C70003B460C9AFEF7A8FD069B009AFEF72CFD2A
:103C80002A463346FEF728FD0022134BFEF727FD98
:103C9000054601980E4601EB00510815002810DC7E
:103CA00028463146019AFEF77EFFFFF751F80428B7
:103CB00008BFFFF7D3F828463146019AFEF773FF95
:103CC00005460B4618B02A4658462146BDE8F04D39
:103CD000FEF708BD640100000000F03F2DE9F0414F
:103CE00006460F46FEF7BEFF041E0D4618BF012014
:103CF000284320F00040C0F17F6000F1E040C00F99
:103D00000ED0301C18BF0120384320F00040C0F115
:103D10007F6000F1E040C00F04BF0120FFF7B6F85C
:103D200020462946BDE8F081000000000000F03F79
:103D3000000000000000F83F00000000000000004C
:103D40000000004003B8E23F000000000000000057
:103D500006D0CF43EBFD4C3E033333333333E33FE5
:103D6000FFAB6FDBB66DDB3F4D268F515555D53F11
:103D700001411DA96074D13F65DBC9934A86CD3FDF
:103D8000EF4E454A287ECA3F3E5555555555C53FCD
:103D900093BDBE166CC166BF2CDE25AF6A56113FBF
:103DA000F16BD2C541BDBBBED0A4BE726937663EC1
:103DB0000000000000000000004040404040404043
:103DC00040404141414141404040404040404040EE
:103DD0004040404040404040400502020202020292
:103DE00002020202020202020220202020202020E1
:103DF00020202002020202020202909090909090F5
:103E000010101010101010101010101010101010B2
:103E10001010101002020202020288888888888826
:103E20000808080808080808080808080808080812
:103E3000080808080202020240000000B93D00081C
:103E4000536E616B65000000486F7273650000007F
:103E500050696700446F6700447261676F6E0000CD
:103E60005469676572000000526F6F737465720069
:103E700052617400476F6174000000005261626219
:103E8000697400004F78000046726964617900002F
:103E90004D6F6E646179000053756E646179000046
:103EA0005361747572646179000000005765646E37
:103EB000657364617900000054756573646179000D
:103EC0005468757273646179000000004D6F6E6B09
:103ED00065790000BBA20000C5A30000BCA60000DD
:103EE000B9B70000D2BB0000CDC30000CBC40000B6
:103EF000C8D50000C9DF0000CEE50000C2ED00001B
:103F0000D6ED0000BAEF0000D1F20000CAF30000C5
:103F1000C1F90000C1FA0000C8FD0000B6FE0000B3
:103F2000403F000800000020040100006C2E000843
:103F300044400008040100209C0700007C2E00087B
:103F400000A24A0400000000000000000102030477
:103F5000060708090000000001020304010203042F
:103F6000060708090204060800000000000000001F
:103F70000000000000000000000000000000000041
:103F8000000000000000000001000000010000002F
:103F9000D00700000000000000000000000000004A
:103FA000F03E0008E43E00081C3F0008183F0008EF
:103FB000EC3E0008F83E0008103F0008003F0008F3
:103FC0000C3F0008D83E0008D43E0008E83E000838
:103FD000143F0008F43E0008FC3E0008083F0008BB
:103FE000043F0008DC3E0008E03E0008983E000860
:103FF000903E0008B83E0008AC3E0008C03E0008F5
:10400000883E0008A03E0008503E0008703E0008B0
:10401000843E0008603E00087C3E0008583E0008D0
:10402000403E0008483E0008743E0008CC3E0008B0
:10403000683E0008543E0008010000000000000037
:04404000000000007C
:04000005080000ED02
:00000001FF
