:10000E0030313233343536373839203A2E2D00B36D
:10001E00ACC9F9B2A8B2E2BEE0CFB5CDB300D6C737
:10002E00C4DCCEA2BFD8B9A4D7F7CAD2004D000007
:10003E0000000000000000000000000000000000B2
:10004E0000000000000000000000000000000000A2
:10005E000000000000000000000000000000000092
:10006E000000C00000000000006000000000000062
:10007E000000E000000C0000407000000080000056
:10008E000000E000001E0000607000000FE00000A5
:10009E000001C000603C0000E060001FFFE00000B7
:1000AE000003800070704000E07E001FE0C0000082
:1000BE000003000073C3F001C3FC0038E1C0000070
:1000CE0003C63C00339FF0038FC00030C1C0000058
:1000DE003FEFFE00031CE00701CC0031F180000071
:1000EE0079DFBC000618C00E01FE0077F980000013
:1000FE0001B03001C619C01E7FDE006F8380000084
:10010E0023AC600FE6F1803E7B3800618300000077
:10011E00370E000FC7B780EC633000E3030000001A
:10012E003E0E00018F3701CC6FF000C7F7000000C4
:10013E001E0C00031E66030C7F0001FFE60000008C
:10014E001E1C00031C600219AC0001960600000084
:10015E003E3E000318600019FC0003860E000000EE
:10016E007E36000300C00038780003060C00000045
:10017E00E667000300C000307800060C0C0000019A
:10018E00C6C3807FF0C00030FE000E0C1C000003C2
:10019E008183C078FF800061CF801C0818000006A4
:1001AE000703E0001FFFE06707E03818F8000008BB
:1001BE000E01F80007FF80CE03F86000700000000B
:1001CE001801F80001FC00C001FCC0007000000026
:1001DE0000000000000000000000000060000000B1
:1001EE000000000000000000000000000000000001
:1001FE0000000000000000000000000000000000F1
:10020E0000000000001000000000000000000000D0
:10021E0000060000001C00000000000000000000AE
:10022E0000070000001C000000000000000000009D
:10023E0000060000000CE00001E0000000000000DD
:10024E00000E0000003FE000FFF0003800E000006C
:10025E00000C00000FFF8000F8F0003800E00000F6
:10026E00000CF0000FC7000060E0003800E0000056
:10027E00001FF000018E000060C0007001C0000081
:10028E0007FF8000018C0000E180007001C00000BB
:10029E0007F8000001980000DFC0007001C00000E8
:1002AE000078000001BFE000FF0000600180000048
:1002BE0000FC00007FFFE000C00000E003800000B3
:1002CE0001FE00007FF80000000000C003000000E7
:1002DE0003B7000060000000003C00C003000000F7
:1002EE0007670000600000039FFE00800200000010
:1002FE000E638000E00001FFCF1E018006000000AB
:10030E001CE1E000C00000E39C3801800600000004
:10031E0038C1F801C00000C3183000000000000012
:10032E00E0FCFE03800001C7186000000000000121
:10033E00DFF8FE030000018E1BE007001C00000723
:10034E0007800007000001FF3FE007001C00000CC3
:10035E000380000E000001F038000F003C0000008A
:10036E000300001C00000100200006001800000021
:10037E000300003800000000000000000000000034
:10038E00030000E00000000000000000000000007C
:10039E00020001C00000000000000000000000008C
:1003AE00000000000000000000000000000000003F
:1003BE00000000000000000000000000000000002F
:1003CE00000000000000000000000000000000001F
:1003DE00000000000000000000000000000000000F
:1003EE0000000000000000000000000000000000FF
:1003FE0000000000000000000000000000000000EF
:10040E0000000000000000000000000000000000DE
:10041E0000000000000000000000000000000000CE
:0F042E00000000000000000000000000000000BF
:100BEF0002080000040A00000000C100040E00000B
:020BFF000000F4
:100A3F007F287E00120BA8D2A7120BA4C2A5120BFF
:100A4F00A4D2A5120BA4C201751930120B6B120B95
:100A5F00A4C201751930120B6B120BA4C2017519C8
:100A6F000C120B6B120BA4C201751901120B6B1236
:100A7F000BA4C201751906120B6B7F017E00020BCE
:010A8F00A8BE
:100C0200C2A4D2A3D2A27590FFE59020E7FBC2A2B4
:010C120022BF
:0A0B610014F5828C831206BBF5190F
:100B6B00200107120C02C2A48005120C02D2A4C2EF
:090B7B00A3D2A2851990C2A222A6
:100B8400E4FDFCC3ED9FEC9E5015E4FBFA0BBB00A7
:0F0B9400010AEB640A4A70F50DBD00010C80E404
:010BA300222F
:060970008B148A158916A4
:10097600E4F517F518C201751936120B6BE4FEC2C1
:1009860001EE2480F519120B6BC201751980120B4A
:100996006BE4FFD201AB14AA15A9160518E518AC2D
:1009A6001770020517120B610FBF10E70EBE20CF9E
:1009B600E4FEC201EE2480F519120B6BC201751913
:1009C60088120B6BE4FFD201AB14AA15A916051801
:1009D600E518AC1770020517120B610FBF10E70E72
:0309E600BE20CF61
:0109E90022EB
:08000300C201751901020B6B2B
:100AD400EF14600F14600E14601114601424047079
:100AE4001680148012ED2490FE8010ED2488FE8080
:100AF4000AED2498FE8004ED2480FEC2018E1902C2
:020B04000B6B79
:100B06008B148A158916120AD4AB14AA15A91612C3
:100B160006A2FF601BD201F519120B6B7401251694
:100B2600F516E43515F5157F017E00120B8480D984
:010B3600229C
:100BDC00D201EF90000E93F519120B6B7F017E0082
:030BEC00020B8475
:100B37001200037BFF7A00792CE4FD7F01120B067C
:100B47007BFF7A00791DE4FD7F02120B067BFF7A9B
:0A0B570000793B7D077F03020B06C7
:1007DA00AF8CEFFEAD8A7C00E42DF509EC3EF508FE
:1007EA00E4F58CF58AAC08AD091205E87B667A66F1
:1007FA0079E6783F12043DE4FBFA79207841120544
:10080A00461206218F0D8E0C8D0B8C0AE47F587EC2
:10081A001BFDFCAB0DAA0CA90BA80AC31206F650C5
:10082A0003300029C2007D037F03120AD47F0D1210
:10083A000BDC7F0C120BDC7D047F03120AD47F0DC4
:10084A00120BDC7F0D120BDC7F0D0208E0E47BE863
:10085A007A03F9F8AF0DAE0CAD0BAC0A120A908F01
:10086A000EE47B64FAF9F8AF0DAE0CAD0BAC0A12CC
:10087A000A90E47B0AFAF9F8120A90AF038F0FE4A0
:10088A007B0AFAF9F8AF0DAE0CAD0BAC0A120A905E
:10089A00E47B0AFAF9F8120A90AF038F10E47B0A94
:1008AA00FAF9F8AF0DAE0CAD0BAC0A120A90AF0311
:1008BA008F117D037F03120AD4AF0E120BDC7F0C5B
:1008CA00120BDC7D047F03120AD4AF0F120BDCAFCC
:0A08DA0010120BDCAF11120BDC2230
:040BA4007F017E004F
:100BA8007C64EF4E60131CEC60087D0A1DED60F656
:090BB80080FAEF1F70EC1E80E9C9
:010BC1002211
:03000B00020C1DC7
:050C1D00D200C2B63256
:0A0C1300D28C20B6FDC28C0207DA75
:100BC200D2B700000000000000000000000000009A
:0A0BD20000000000000000C2B7227E
:1009EA00120A3F1200037BFF7A00793D1209707FD9
:1009FA00507E00120BA8120A3F120B37758901E4C8
:100A0A00F58CF58AD2A9D2AF7F3C7E00120BA8D210
:100A1A00B6120BC275121D75135630B603120C139B
:100A2A00E513151370021512D3E5139400E5129419
:050A3A000050E780D32D
:10043D00EC4D6011E8497017ED33EC3304600DE4B9
:10044D00FCFFFEFD22E933E8330470F802068D123D
:10045D00065858046009E4CC24815006285009023E
:10046D000697284003020694C0E0EB4A7044B98019
:10047D0006D0E0FB020683EF4E701CBD8008EBFF3B
:10048D00EAFEE9FD80EBE98DF0A4FEE5F00205261C
:10049D00E9CDF9EAFEEBFFEF89F0A4FCE5F0CE899A
:1004AD00F0A42EFFE435F0CD89F0A42DFEE435F057
:1004BD008067EF4E7005BD80D780C3EF8BF0A4AC85
:1004CD00F0EE8BF0A42CFCE435F0F8EF8AF0A42CC0
:1004DD00E5F038FCE433CB8DF0A42CFCE5F03BF8D3
:1004ED00EE8AF0A42CFCE5F038F8E433CF89F0A4C3
:1004FD002CFCE5F038CF3400CE89F0A42FFFE5F0C9
:10050D003EFEE433C98DF0A42EFEE5F039CD8AF020
:10051D00A42FFFE5F03EFEE43DFD33D0E0FB500798
:10052D000BBB000F020697EC2CFCEF33FFEE33FEF6
:06053D00ED33FD02066F24
:10054300020697EC5D046005E85904700302068D0A
:10055300120658580460F6EC4860F2EC7004FDFE95
:10056300FF22C860DB2481C85009C398600250068B
:100573000206949850CAF582E9294B4A7005AB826A
:1005830002068375F0007C1A7880C3EF9BEE9AED28
:1005930099400DC3EF9BFFEE9AFEED99FDE842F003
:1005A300DC23ACF0D0E0FFD0E0FED0E0FDAB822056
:1005B300E7101BEB60BAEC2CFCEF33FFEE33FEEDE0
:1005C30033FD02066FE803F830E705C0F075F0006D
:1005D300EF2FFFEE33FEED33FD40B830E7C280AAC4
:1005E30075F020800E75F010800575F0087D007E93
:1005F300007F003392D530D5031206E8EC33401068
:10060300EF33FFEE33FEED33FDEC33FCD5F0ED229B
:0E061300E5F0247EA2D513CC92E7CDCEFF22D7
:10062100EDD2E7CD33EC3392D524814006E4FFFED1
:10063100FDFC22FCE4CFCECDCC24E0501174FF8030
:10064100EDC3CC13CCCD13CDCE13CECF13CF0470CD
:07065100F030D5DE0206E8DF
:10065800E9D2E7C933E833F892D5EDD2E7CD33ECE8
:0706680033FC5002B2D52261
:10066F00EC30E7100FBF000C0EBE00080DBD0004EC
:10067F000BEB6014A2D5EB13FCED92E7FD2274FF98
:10068F00FCFDFEFF22E480F8A2D574FF13FC7D80F1
:03069F00E480EF05
:030000000208E40F
:0C08E400787FE4F6D8FD75812002092B16
:1006A200BB010689828A83E0225002E722BBFE0256
:0906B200E32289828A83E4932289
:1006BB00BB010CE58229F582E5833AF583E02250F4
:1006CB0006E92582F8E622BBFE06E92582F8E2223E
:0D06DB00E58229F582E5833AF583E4932258
:100A9000C2D5E830E70FB2D5E4C39BFBE49AFAE491
:100AA00099F9E498F8EC30E717B2D5120AC61207A4
:100AB00048E4C39BFBE49AFAE499F9E498F88003CC
:100AC00012074830D50DE4C39FFFE49EFEE49DFD70
:040AD000E49CFC2284
:0E06E800C3E49FFFE49EFEE49DFDE49CFC2223
:1006F600EB9FF5F0EA9E42F0E99D42F0EC6480C87B
:0607060064809845F0221A
:1008F0000209EAE493A3F8E493A34003F68001F22B
:1009000008DFF48029E493A3F85407240CC8C33308
:10091000C4540F4420C8834004F456800146F6DFD7
:10092000E4800B0102040810204080900BEFE47E6D
:10093000019360BCA3FF543F30E509541FFEE493CC
:10094000A360010ECF54C025E060A840B8E493A393
:10095000FAE493A3F8E493A3C8C582C8CAC583CABE
:10096000F0A3C8C582C8CAC583CADFE9DEE780BE76
:010C010000F2
:10070C0075F008758200EF2FFFEE33FECD33CDCCA4
:10071C0033CCC58233C5829BED9AEC99E582984027
:10072C000CF582EE9BFEED9AFDEC99FC0FD5F0D604
:10073C00E4CEFBE4CDFAE4CCF9A88222B800C1B92E
:10074C000059BA002DEC8BF084CFCECDFCE5F0CB6C
:10075C00F97818EF2FFFEE33FEED33FDEC33FCEBA5
:10076C0033FB10D703994004EB99FB0FD8E5E4F960
:10077C00FA227818EF2FFFEE33FEED33FDEC33FC4D
:10078C00C933C910D7059BE99A4007EC9BFCE99A41
:10079C00F90FD8E0E4C9FAE4CCFB2275F010EF2F86
:1007AC00FFEE33FEED33FDCC33CCC833C810D70786
:1007BC009BEC9AE899400AED9BFDEC9AFCE899F8C1
:0E07CC000FD5F0DAE4CDFBE4CCFAE4C8F92254
:00000001FF
