:020000040800F2
:100000003805002001010008D9120008DF1100089E
:10001000D51200081B020008E514000800000000CB
:1000200000000000000000000000000009130008AC
:100030001F02000800000000DD1200080B1300087A
:100040001B0100081B0100081B0100081B01000820
:100050001B0100081B0100081B0100081B01000810
:100060001B0100081B0100081B0100081B01000800
:100070001B0100081B0100081B0100081B010008F0
:100080001B0100081B0100081B0100081B010008E0
:100090001B0100081B0100081B0100081B010008D0
:1000A0001B0100081B0100081B0100081B010008C0
:1000B0001B0100081B0100081B0100081B010008B0
:1000C0001B0100081B0100081B0100081B010008A0
:1000D0001B0100081B0100081B0100081B01000890
:1000E0001B0100081B0100081B010008DFF80CD0F1
:1000F00000F072F800480047D519000838050020C4
:100100000648804706480047FEE7FEE7FEE7FEE7B1
:10011000FEE7FEE7FEE7FEE7FEE7FEE779130008ED
:10012000ED000008202A04DB203A21FA02F0002129
:10013000704721FA02F3D040C2F1200291400843F7
:1001400019467047D2B201E000F8012B491EFBD2DC
:1001500070470022F6E710B513460A4604461946D2
:10016000FFF7F0FF204610BD421C10F8011B0029CC
:10017000FBD1801A70472DE9F05F054600209246BA
:100180009B4688460646814640241BE02846414659
:1001900047462246FFF7C6FF53465A46C01A9141CA
:1001A00010D311461846224600F028F82D1A67EBA6
:1001B00001084F4622460120002100F01FF817EBEE
:1001C00000094E41201EA4F10104DFDC48463146FF
:1001D0002A464346BDE8F09F064C074D06E0E0681E
:1001E00040F0010394E8070098471034AC42F6D37E
:1001F000FFF780FF041B0008241B0008202A04DBF3
:10020000203A00FA02F1002070479140C2F1200329
:1002100020FA03F319439040704700BFFEE7704790
:1002200038B5044664210948FFF793FFA0680090A1
:1002300007A10648D4E9002301F056F9034800F06D
:1002400047F8322000F0A8F838BD00009C000020DC
:100250007B2274797065223A22676F616C222C22AE
:10026000736E223A22253038782530387825303898
:1002700078227D0A0D00000038B504466421094843
:10028000FFF767FFA068009007A10648D4E90023A4
:1002900001F02AF9034800F01BF8322000F07CF846
:1002A00038BD00009C0000207B2274797065223AE2
:1002B0002273686F74222C22736E223A2225303802
:1002C000782530387825303878227D0A0D000000F6
:1002D00070B504462046FFF747FF85B264232A46DF
:1002E0002146024800F012FF70BD00005C000020B3
:1002F00070B504462046FFF737FF85B264232A46CF
:100300002146024800F002FF70BD00005C000020A2
:1003100010B541F2883000F03FF80BA0FFF7E8FF7E
:100320004FF4FA7000F038F811A0FFF7E1FF4FF436
:10033000FA7000F031F812A0FFF7DAFF4FF4FA700C
:1003400000F02AF810BD000041542B43495053548B
:100350004152543D22544350222C223139322E3105
:1003600036382E342E31222C383038300D0A000029
:1003700041542B4349504D4F44453D310D0A000037
:1003800041542B43495053454E440D0A0000000090
:1003900072B600BFFEE7000070B5044600F0A8F991
:1003A00006462546681C10B104480078054400BF85
:1003B00000F09EF9801BA842FAD370BD080000200F
:1003C0002DE9F8470346002294466EE14FF00108FC
:1003D00008FA02F4D1F8008008EA0400A0427DD1B6
:1003E000DFF8DCA2D1F80480A8EB0A09D0453AD0A6
:1003F00014DCB8F1030F50D009DCB8F1000F31D094
:10040000B8F1010F1CD0B8F1020F49D120E0B8F1CA
:10041000110F18D0B8F1120F42D11EE0B9F5881FA4
:1004200025D006DCB9F5803F20D0B9F5801F37D143
:100430001AE0B9F5001F18D0B9F5041F30D117E044
:10044000D1F80CC02DE0D1F80C8008F1040C28E0A4
:10045000D1F80C8008F1080C23E0D1F80C8008F1E9
:100460000C0C1EE000BF00BF00BF00BF00BF00BFFC
:10047000D1F80880B8F1000F02D14FF0040C0BE066
:10048000D1F80880B8F1010F03D14FF0080C1C61BE
:1004900002E04FF0080C5C6103E04FF0000C00E05C
:1004A00000BF00BFFF2801D8984601E003F104080F
:1004B0004646FF2802D84FEA820803E0A2F1080866
:1004C0004FEA88084746D6F800804FF00F0909FA2E
:1004D00007F928EA09080CFA07F900E088E048EA79
:1004E0000908C6F80080D1F8048008F08058B8F1F7
:1004F000805F7DD100BFDFF8CC81D8F8188048F04C
:100500000108DFF8C091C9F81880C846D8F81880EB
:1005100008F00108CDF8008000BF00BF4FEAB938ED
:100520004FEA920958F829504FEA82784FEA187931
:100530004FF00F0808FA09F825EA0805DFF8888166
:10054000434502D14FF0000816E0DFF880814345B3
:1005500002D14FF001080FE0DFF87481434502D16A
:100560004FF0020808E0DFF86C81434502D14FF0FC
:10057000030801E04FF004084FEA82794FEA197945
:1005800008FA09F848EA0505DFF84C814FEA9209B4
:1005900048F82950D1F8048008F48038B8F5803F35
:1005A0000AD1DFF83881D8F8008048EA0008DFF87F
:1005B0002C91C9F8008009E0DFF82081D8F800808C
:1005C00028EA0008DFF81491C9F80080D1F8048007
:1005D00008F40038B8F5003F10D1DFF8008108F1C9
:1005E0000408D8F8008048EA0008DFF8F09000E03E
:1005F0005AE009F10409C9F800800DE0DFF8DC8059
:1006000008F10408D8F8008028EA0008DFF8CC9048
:1006100009F10409C9F80080D1F8048008F48018B1
:10062000B8F5801F0ED1DFF8B48008F10808D8F8BB
:10063000008048EA0008DFF8A49009F10809C9F829
:1006400000800DE0DFF8948008F10808D8F80080F9
:1006500028EA0008DFF8849009F10809C9F8008049
:10066000D1F8048008F40018B8F5001F0ED1DFF8A7
:100670006C8008F10C08D8F8008048EA0008DFF820
:100680005C9009F10C09C9F800800DE0DFF84C809E
:1006900008F10C08D8F8008028EA0008DFF83C9040
:1006A00009F10C09C9F80080521CD1F8008028FA21
:1006B00002F8B8F1000F7FF489AEBDE8F8870000BA
:1006C000000011100010024000080140000C014021
:1006D00000100140001401400800014000040140E6
:1006E000024693680B400BB1012000E000207047E8
:1006F00001480068704700000000002001480068C1
:1007000070470000E8F7FF1F0148006870470000CD
:10071000ECF7FF1F0148006870470000F0F7FF1F6B
:100720000348006803490978084401490860704794
:10073000000000200800002010B50848006840F0C4
:10074000100006490860032000F098F8002000F02F
:1007500007F800F02BF8002010BD00000020024038
:1007600070B504460E4800784FF47A71B1FBF0F092
:100770000C490968B1FBF0F5284600F0FBFB08B115
:10078000012070BD102C07D200222146501E00F01F
:1007900037F80548046001E00120F2E70020F0E7A7
:1007A000080000200C0000200400002008B500BF55
:1007B0001148806940F001000F498861084680694E
:1007C00000F00100009000BF00BF00BF0846C069F4
:1007D00040F08050C8610846C06900F08050009029
:1007E00000BF00BF00BF0549486820F0E06040F04E
:1007F0000070486000BF08BD0010024000000140CA
:100800002DE9F05F80460D461646002700F080FE79
:10081000074639462A46334601F00700C0F1070A69
:10082000BAF1040F02D94FF0040A01E0C0F1070A3F
:10083000D14600F1040ABAF1070F02D24FF0000AC4
:1008400001E0A0F1030AD4464FF0010A0AFA09FABE
:10085000AAF1010A0AEA020A0AFA0CFA4FF0010B9D
:100860000BFA0CFBABF1010B0BEA030B4AEA0B048E
:100870002146404600F054FEBDE8F09F00BF00F066
:100880000702064B19684FF6FF031940044B0B4350
:1008900043EA0221014B196000BF70470CED00E0F4
:1008A0000000FA0570B504460D460CB9012070BD74
:1008B0005A48006800F00700A8420ED25748006866
:1008C00020F007002843554908600846006800F0FA
:1008D0000700A84201D00120E9E7207800F00200DB
:1008E00002281DD1207800F00400042805D14C48CE
:1008F000406840F4E0604A494860207800F0080011
:10090000082805D14648406840F460504449486092
:100910004348406820F0F000A1680843404948601F
:10092000207800F0010078B36068012806D13C48C7
:10093000006800F4003090B90120B8E76068022830
:1009400006D13748006800F0007040B90120AEE7DA
:100950003348006800F0020008B90120A7E73048DA
:10096000406820F00300616808432D494860FFF7A4
:10097000BFFE064609E0FFF7BBFE801B41F288314F
:10098000884202D9032092E707E02548406800F03A
:100990000C006168B0EB810FEDD12048006800F0D9
:1009A0000700A8420ED91D48006820F00700284320
:1009B0001A4908600846006800F00700A84201D004
:1009C000012074E7207800F00400042807D11448BF
:1009D000406820F4E060E1680843114948602078ED
:1009E00000F00800082808D10D48406820F4605045
:1009F000216940EAC1000A49486000F03FF808490F
:100A00004968C1F30311074A515CC84006490860B0
:100A100006480068FFF7A4FE002048E700200240D7
:100A200000100240EC1A00080C0000200400002016
:100A300001480068704700000C00002000B5FFF777
:100A4000F7FF04494968C1F30221034A515CC840D9
:100A500000BD000000100240FC1A000800B5FFF7BE
:100A6000E7FF04494968C1F3C221034A515CC84009
:100A700000BD000000100240FC1A0008F0B585B06F
:100A80000FF26C0C9CE8E01001A8A0E8E0101CA597
:100A90002D68009500210022002300240020194D1C
:100AA000696801F00C05F5B1042D02D0082D19D1AB
:100AB00001E0154819E001ADC1F38346AC5D01F4D6
:100AC000803555B10F4D6D68C5F340451DF80520C3
:100AD0000D4D6543B5FBF2F302E00C4D04FB05F34D
:100AE000184602E000BF084800BF00BF05B0F0BDD7
:100AF00002030405060708090A0B0C0D0E0F10105F
:100B0000010200000010024000127A0000093D00BE
:100B1000F8B504460CB90120F8BD207800F00100BA
:100B2000002878D0F848406800F00C0004280CD069
:100B3000F548406800F00C00082811D1F2484068E0
:100B400000F48030B0F5803F0AD1EF48006800F42F
:100B5000003000285FD0606800285CD10120DBE70E
:100B600000BF6068B0F5803F06D1E748006840F4F8
:100B70008030E549086028E0606858B9E2480068BC
:100B800020F48030E04908600846006820F48020A6
:100B900008601AE06068B0F5A02F0BD1DA48006851
:100BA00040F48020D84908600846006840F480304E
:100BB00008600AE0D448006820F48030D249086018
:100BC0000846006820F48020086000BF606888B193
:100BD000FFF78EFD054606E0FFF78AFD401B6428FF
:100BE00001D9032098E7C848006800F400300028C5
:100BF000F2D010E0FFF77CFD054606E0FFF778FD38
:100C0000401B642801D9032086E7BF48006800F430
:100C100000300028F2D1207800F00200022857D1DD
:100C2000B948406800F00C0050B1B748406800F087
:100C30000C00082818D1B448406800F4803098B9F6
:100C4000B148006800F0020020B12069012801D0FD
:100C5000012061E7AC48006820F0F800616940EAD3
:100C6000C100A949086033E02069E8B10120A74923
:100C70000860FFF73DFD054606E0FFF739FD401B24
:100C8000022801D9032047E79F48006800F00200CE
:100C90000028F2D09C48006820F0F800616940EA22
:100CA000C1009949086013E0002098490860FFF7E7
:100CB0001FFD054606E0FFF71BFD401B022801D97A
:100CC000032029E79048006800F002000028F2D1D4
:100CD000207800F0080008282DD1A069B8B10120C3
:100CE0008B490860FFF704FD054606E0FFF700FDAD
:100CF000401B022801D903200EE78348406A00F018
:100D000002000028F2D0012000F0EAFA13E00020EF
:100D10007F490860FFF7ECFC054606E0FFF7E8FCBA
:100D2000401B022801D90320F6E67748406A00F00C
:100D300002000028F2D1207800F00400042873D1CA
:100D400000277148C06900F0805070B900BF6E483C
:100D5000C06940F080506C49C8610846C06900F025
:100D60008050009000BF00BF01276A48006800F46F
:100D70008070B0B96748006840F4807065490860C9
:100D8000FFF7B6FC054606E0FFF7B2FC401B6428FF
:100D900001D90320C0E65F48006800F48070002895
:100DA000F2D000BFE068012806D15748006A40F041
:100DB00001005549086227E0E06858B95248006AC6
:100DC00020F00100504908620846006A20F0040043
:100DD000086219E0E06805280BD14B48006A40F032
:100DE0000400494908620846006A40F001000862B0
:100DF0000AE04548006A20F00100434908620846BD
:100E0000006A20F00400086200BFE068A0B1FFF7AC
:100E10006FFC054609E0FFF76BFC401B41F288318F
:100E2000884202D9032077E622E03748006A00F0C2
:100E300002000028EFD012E0FFF75AFC054608E058
:100E4000FFF756FC401B41F28831884201D903204C
:100E500062E62D48006A00F002000028F0D1012F60
:100E600005D12948C06920F080502749C86100BFDA
:100E7000E069C8B32448406800F00C00082860D03E
:100E8000E069022848D1002020490866FFF730FCBD
:100E9000054606E0FFF72CFC401B022801D9032081
:100EA0003AE61948006800F000700028F2D1206A84
:100EB000B0F5803F07D11448406820F40030A168A5
:100EC000084311494860D4E9080108430E494968BC
:100ED00021F4741108430C49486001200B4908664D
:100EE000FFF706FC054607E03DE0FFF701FC401B6D
:100EF000022801D903200FE60348006800F00070C3
:100F00000028F2D02FE00000001002400000424212
:100F10008004424200700040002014490866FFF738
:100F2000E7FB054606E0FFF7E3FB401B022801D97B
:100F30000320F1E50E48006800F000700028F2D1AF
:100F400011E0E069012800D1E6E50948466806F4A9
:100F50008031206A814204D106F47011606A8142B6
:100F600001D00120D8E50020D6E500000000424273
:100F70000010024070B504462546681EB0F1807F1F
:100F800001D301200FE0681E4FF0E02148610F21DE
:100F90004FF0FF3000F0C4FA00204FF0E0218861EC
:100FA00007200861002070BD10B504460CB901206F
:100FB00010BDA06900B100E000BF94F8390028B965
:100FC000002084F83800204600F028F8242084F817
:100FD00039002068C06820F400502168C8602046AD
:100FE00000F0CCF92068006920F490402168086185
:100FF0002068406920F02A00216848612068C068A4
:1010000040F400502168C8600020E063202084F88C
:10101000390084F83A000020CAE7000010B586B015
:101020000446002002900390049005903349206804
:1010300088422FD100BF3248806940F48040304957
:1010400088610846806900F48040019000BF00BFBD
:1010500000BF0846806940F0040088610846806946
:1010600000F00400019000BF00BF4815029002206C
:1010700003900320059002A92248FFF7A1F94FF43D
:101080008060029000200390049002A91D48FFF7A1
:1010900097F931E01C49206888422DD100BF1848DB
:1010A000C06940F400301649C8610846C06900F4C0
:1010B0000030019000BF00BF00BF0846806940F0CB
:1010C000040088610846806900F00400019000BFB8
:1010D00000BF04200290022003900320059002A983
:1010E0000848FFF76DF90820029000200390049053
:1010F00002A90448FFF764F906B010BD00380140AA
:101100000010024000080140004400402DE9F84F63
:1011100004460E46174699464FF0000A94F83900E7
:1011200020285AD106B117B90120BDE8F88F00BFB9
:1011300094F83800012801D10220F6E7012084F854
:10114000380000BF0020E063212084F83900FFF759
:10115000CFFA8246A784E784A068B0F5805F04D107
:10116000206910B90025B04602E035464FF000086E
:1011700000BF002084F8380000BF1BE05346002267
:1011800080212046CDF8009000F076F908B10320C8
:10119000CBE745B9B8F80000C0F308002168486003
:1011A00008F1020803E02878216848606D1CE08C93
:1011B000401EE084E08C0028E0D15346002240210C
:1011C0002046CDF8009000F057F908B10320ACE7B5
:1011D000202084F839000020A7E70220A5E700BFFF
:1011E000FEE7000000B585B000200190029003905A
:1011F000049000BF1948806940F0100017498861C9
:101200000846806900F01000009000BF00BF00BFDA
:101210000846806940F0200088610846806900F037
:101220002000009000BF00BF00BF0846806940F06A
:10123000040088610846806900F00400009000BF47
:1012400000BFB0200190002002900220039001A96D
:101250000348FFF7B5F805B000BD000000100240DC
:101260000008014010B50B480B4908604FF4E1300D
:101270004860002108488160C16001610C21416122
:1012800000218161C161FFF78FFE08B1FFF780F88F
:1012900010BD0000003801401C00002010B50B48B4
:1012A0000B4908604FF4E130486000210848816034
:1012B000C16001610C21416100218161C161FFF7C1
:1012C00073FE08B1FFF764F810BD00000044004051
:1012D0005C00002000BFFEE700BFFEE77047000093
:1012E00008B508490968C9084FF47A72B1FBF2F1F0
:1012F0004143009100BF00BF00994A1E009200299F
:10130000F9D108BD0C000020704710B5FFF708FAAE
:1013100010BD00B58FB0282105A8FEF71AFF1421D3
:101320006846FEF716FF0120059000040690002095
:1013300007900120099002200C90C1030D914FF4F9
:10134000E0110E9105A8FFF7E3FB08B1FFF720F8C5
:101350000F20009002200190002002904FF4806046
:1013600003900020049002216846FFF79BFA08B121
:10137000FFF70EF80FB000BD7047000070B50446CF
:101380002168096921F44051E26811432268116122
:101390002269A1681143626941EA02052168C968AE
:1013A00041F20C62914329432268D1602168496966
:1013B00021F44071A2691143226851612D4A2168CC
:1013C000914202D1FFF74AFB01E0FFF737FB00EB48
:1013D000C00101EB001162689200B1FBF2F100EB79
:1013E000C00202EB001263689B00B2FBF3F26423BD
:1013F000B2FBF3F202EBC20303EB0212A1EB820198
:10140000322202EB01116422B1FBF2F101F0F00192
:1014100000EBC00202EB001263689B00B2FBF3F228
:101420006423B2FBF3F201EB021200EBC00101EB0B
:10143000001163689B00B1FBF3F100EBC00303EB09
:1014400000136668B600B3FBF6F36426B3FBF6F34D
:1014500003EBC30606EB0313A1EB8301322303EB7B
:1014600001116423B1FBF3F101F00F011144226873
:10147000916070BD003801402DE9F04104460D46F1
:1014800017469846069E21E0701CF8B12EB1FFF772
:101490002FF9A0EB0800B04218D92068C06820F4EA
:1014A000D0702168C8602068406920F00100216880
:1014B0004861202084F8390084F83A0000BF0020F9
:1014C00084F8380000BF0320BDE8F0812068006880
:1014D0002840A84201D1012000E00020B842D3D02A
:1014E0000020F1E700BFFEE70FB4084B10B504A9D8
:1014F00002AA039800F038F8044602A9002000F080
:1015000064FA204610BC5DF814FB0000CB190008FB
:1015100002480068C0F30220704700000CED00E0B4
:1015200010B5002804DB0A07130E054A135406E021
:101530000A07140E034A00F00F031B1FD45410BDFA
:1015400000E400E018ED00E002E008C8121F08C146
:10155000002AFAD170477047002001E001C1121F34
:10156000002AFBD1704700002DE9FF4F8DB00F46D8
:101570000546002606E025280BD0DDE90F1290472E
:101580006D1C761C28780028F5D111B03046BDE8D6
:10159000F08F0024A246A1460122EC4900E004435A
:1015A00015F8013F203B02FA03F00842F7D12878F2
:1015B0002A2810D06FF02F022878A0F130010929D5
:1015C00014D80AEB8A0102EB410144F0020400EB5B
:1015D000010A6D1CF0E701CF5FEA000A03D544F46D
:1015E0000054CAF1000A44F002046D1C28782E2829
:1015F00017D115F8010F44F004042A280ED06FF01B
:101600002F022878A0F1300109290AD809EB8901B5
:1016100002EB410100EB01096D1CF2E757F8049B56
:101620006D1C28786C280FD006DC4C2817D0682851
:101630000DD06A2814D104E0742810D07A280FD174
:101640000DE044F400140AE044F4801401E044F492
:1016500040146978814202D104F580146D1C6D1C20
:101660002A786E2A1FD00CDC632A31D004DC002AD1
:101670008BD0582A11D1A3E0642A68D0692A0CD1F2
:1016800065E0732A2ED004DC6F2A73D0702A04D14F
:101690009BE0752A6FD0782A6ED01046DDE90F12D4
:1016A0009047761C50E1C4F30250022806D003286C
:1016B00009D0042801CF09D0066045E101CFF11718
:1016C000C0E9006140E101CF06803DE106703BE1E9
:1016D00017F8040B8DF8000000208DF80100EB4690
:1016E000012003E057F804BB4FF0FF3061074FF0D3
:1016F000000102D40DE008F10101884649450FDAE6
:101700008045F8DB1BF808100029F4D108E008F147
:10171000010188468142FADB1BF808100029F6D146
:10172000DDE90F23AAEB08008146214600F036F9D7
:10173000304400EB080604E0DDE90F121BF8010B52
:101740009047B8F10108F7D221464846F7E00A2150
:10175000C4F302534FF0000B0891022B04D001CFC9
:10176000C117032B09D00AE0FF1D27F00707F7E890
:10177000020108E032E01FE020E000B2C117042BB4
:1017800001D140B2C117031E71F1000307DA4FF017
:10179000000CD0EB0C006CEB01012D2302E02305C3
:1017A00004D52B238DF82430012303E0E30701D077
:1017B0002023F7E7984658E00A2110E010210EE0B8
:1017C00010204FF0000B08900CE010214FF0000BA0
:1017D00044F004044FF00809089103E008214FF099
:1017E000000B0891C4F30253022B04D001CF002157
:1017F000032B06D006E0FF1D27F00707F7E80201DC
:1018000003E080B2042B00D1C0B24FF000082307E0
:101810002BD5702A07D0DDF820C08CF0100C5CEAC4
:101820000B0C05D00EE040238DF82430012308E096
:1018300050EA010306D030238DF824308DF825209E
:1018400002239846DDF820C08CF0080C5CEA0B0CF3
:101850000BD150EA010301D1630706D530238DF87F
:1018600024304FF00108A9F10109582A04D038A208
:101870000B9208AA0A920BE03AA2F9E75B46089A93
:10188000FEF779FC0B9B9B5C0A9A521E0A9213701E
:1018900050EA0102F2D10A98ADEB000000F1200BF2
:1018A000600702D524F4803401E04FF00109D945E6
:1018B00002DDA9EB0B0000E0002000EB0B0141442E
:1018C0000890AAEB010AE00306D4DDE90F232146C4
:1018D000504600F063F806444FF0000908E009A9FB
:1018E00011F80900DDE90F12904709F10109761C92
:1018F000C145F4DBE0030CD5DDE90F23214650465A
:1019000000F04CF8064404E0DDE90F123020904767
:10191000761C0899481E08900029F5DC08E00A9812
:101920000A990078491C0A91DDE90F129047761C4C
:10193000BBF10001ABF1010BF1DC21465046DDE9C2
:101940000F2300F019F806446D1C1BE6092801005E
:101950003031323334353637383961626364656625
:1019600000000000303132333435363738394142E7
:1019700043444546000000002DE9F041044600259F
:101980001E461746880404D405E039462020B04797
:101990006D1C641EF9D52846BDE8F0812DE9F041A3
:1019A000044600251E469046C80301D5302700E0B6
:1019B0002027880404D505E041463846B0476D1C11
:1019C000641EF9D52846BDE8F0810A68531C0B60F7
:1019D00010707047FEF7B0FEFFF79BFCFFF702FCAC
:1019E000FFF740FCFFF75AFC0027B84640F2DC54F2
:1019F000FEF784FE3A490860FEF786FE38494860E3
:101A0000FEF788FE36498860FEF782FC66E010210A
:101A10003448FEF765FEF8B97F1C3148FEF72CFC10
:101A2000FEF766FE06462546681C10B12E48007873
:101A300005440AE020212B48FEF752FE28B908F1A0
:101A400001082748FEF7ECFB04E0FEF751FE801B7F
:101A5000A842EFD300BF41E080212248FEF740FEBC
:101A600000283BD17F1C1E48FEF706FCFEF740FE17
:101A700081462546681C10B11B480078054425E0C6
:101A800010211848FEF72CFEF8B9FEF731FE824609
:101A90002646701C10B11448007806440DE0202141
:101AA0001048FEF71DFE40B908F101080C48FEF78A
:101AB000B7FB2046FEF770FC05E0FEF719FEA0EB31
:101AC0000A00B042EBD300BF06E000BFFEF710FEF5
:101AD000A0EB0900A842D3D300BF00BF97E70000E6
:101AE0001000002000080140080000200000000055
:101AF00000000000010203040607080900000000BE
:101B000001020304241B0008000000201000000054
:101B100048150008341B00081000002028050000AC
:101B2000581500080000000010000000010000002F
:041B30000024F40099
:04000005080000ED02
:00000001FF
