:020000040800F2
:10000000F805002005010008AD1B0008191A0008BA
:10001000A91B00081F020008812000080000000042
:10002000000000000000000000000000DD1B0008D0
:100030006D02000800000000B11B0008DF1B000873
:100040001F0100081F0100081F0100081F01000810
:100050001F0100081F0100081F0100081F01000800
:100060001F0100081F0100081F0100081F010008F0
:100070001F0100081F0100081F0100081F010008E0
:100080001F0100081F0100081F0100081F010008D0
:100090001F0100081F0100081F0100081F010008C0
:1000A0001F010008511C00081F0100081F01000863
:1000B0001F0100081F0100081F0100081F010008A0
:1000C0001F0100081F0100081F0100081F01000890
:1000D0001F01000861200008712000081F010008AE
:1000E0001F0100081F0100081F010008DFF810D0E1
:1000F00000F074F8004800476D250008AFF3008059
:10010000F80500200648804706480047FEE7FEE75E
:10011000FEE7FEE7FEE7FEE7FEE7FEE7FEE7FEE7B7
:100120004D1C0008ED000008202A04DB203A21FACB
:1001300002F00021704721FA02F3D040C2F1200200
:100140009140084319467047D2B201E000F8012BF4
:10015000491EFBD270470022F6E710B513460A4647
:1001600004461946FFF7F0FF204610BD421C10F868
:10017000011B0029FBD1801A70472DE9F05F05466D
:10018000002092469B4688460646814640241BE056
:100190002846414647462246FFF7C6FF53465A4681
:1001A000C01A914110D311461846224600F028F893
:1001B0002D1A67EB01084F4622460120002100F06E
:1001C0001FF817EB00094E41201EA4F10104DFDCEB
:1001D000484631462A464346BDE8F09F064C074D47
:1001E00006E0E06840F0010394E807009847103407
:1001F000AC42F6D3FFF77EFFE0250008002600089A
:10020000202A04DB203A00FA02F1002070479140D6
:10021000C2F1200320FA03F319439040704700BF56
:10022000FEE7000010B504460C480088042814D1ED
:10023000A178607801EB0020094908600020074997
:10024000088007480068B0F5487F06DC054802F0E2
:1002500089F910B1044800F00BF810BD040000202B
:100260001C000020CC01002020000020704700006E
:1002700038B5044664210C48FFF76DFFA068009074
:100280000AA10948D4E9002301F0FCFE00F030F88F
:10029000322000F0DFF8044800F044F800F01AF8CB
:1002A000322000F0D7F838BD340100207B22747969
:1002B0007065223A22676F616C222C22736E223A9B
:1002C00022253038782530387825303878227D0A54
:1002D0000D00000010B502A000F04AF810BD0000AB
:1002E00041542B434950434C4F53450D0A000000E5
:1002F00010B502A000F03CF810BD000041542B43A3
:10030000495053544152543D22544350222C2231DF
:1003100039322E3136382E342E31222C38303830C6
:100320000D0A000030B58DB004462046FFF71EFFD1
:1003300005462A4609A1684601F0A4FE684600F079
:1003400017F82046FFF712FF85B264232A4621469C
:10035000064801F0F7FA0DB030BD000041542B43C0
:10036000495053454E443D25640A0D00B400002019
:1003700070B504462046FFF7F9FE85B264232A468D
:100380002146024801F0DEFA70BD0000B4000020F2
:1003900010B54FF4FA7000F05DF810BD72B600BFF2
:1003A000FEE7000070B50446002594F821000228FD
:1003B00003D00420A063012548E02068006820F0F5
:1003C0000E00216808602068006820F001002168A4
:1003D00008601F492068884201D1012026E01C499D
:1003E00014312068884201D110201FE018492831BB
:1003F0002068884201D1801518E015493C312068F9
:10040000884201D1801411E011495031206888429E
:1004100002D14FF4803009E00D49643120688842F0
:1004200002D14FF4801001E04FF080700849083984
:100430004860012084F8210000BF002084F82000DB
:1004400000BF606B10B12046616B8847284670BDC5
:100450000800024070B5044600F0A0F906462546A3
:10046000681C10B104480078054400BF00F096F9FC
:10047000801BA842FAD370BD140000202DE9F84774
:100480000346002294466EE14FF0010808FA02F498
:10049000D1F8008008EA0400A0427DD1DFF8DCA298
:1004A000D1F80480A8EB0A09D0453AD014DCB8F1A1
:1004B000030F50D009DCB8F1000F31D0B8F1010FB3
:1004C0001CD0B8F1020F49D120E0B8F1110F18D0BB
:1004D000B8F1120F42D11EE0B9F5881F25D006DC15
:1004E000B9F5803F20D0B9F5801F37D11AE0B9F5B2
:1004F000001F18D0B9F5041F30D117E0D1F80CC097
:100500002DE0D1F80C8008F1040C28E0D1F80C8023
:1005100008F1080C23E0D1F80C8008F10C0C1EE067
:1005200000BF00BF00BF00BF00BF00BFD1F8088000
:10053000B8F1000F02D14FF0040C0BE0D1F80880A5
:10054000B8F1010F03D14FF0080C1C6102E04FF02D
:10055000080C5C6103E04FF0000C00E000BF00BF3E
:10056000FF2801D8984601E003F104084646FF2819
:1005700002D84FEA820803E0A2F108084FEA88088F
:100580004746D6F800804FF00F0909FA07F928EA24
:1005900009080CFA07F900E088E048EA0908C6F8FB
:1005A0000080D1F8048008F08058B8F1805F7DD1D8
:1005B00000BFDFF8CC81D8F8188048F00108DFF8D8
:1005C000C091C9F81880C846D8F8188008F001080A
:1005D000CDF8008000BF00BF4FEAB9384FEA92095A
:1005E00058F829504FEA82784FEA18794FF00F08EF
:1005F00008FA09F825EA0805DFF88881434502D1A1
:100600004FF0000816E0DFF88081434502D14FF03B
:1006100001080FE0DFF87481434502D14FF0020872
:1006200008E0DFF86C81434502D14FF0030801E098
:100630004FF004084FEA82794FEA197908FA09F86D
:1006400048EA0505DFF84C814FEA920948F829503D
:10065000D1F8048008F48038B8F5803F0AD1DFF87B
:100660003881D8F8008048EA0008DFF82C91C9F8F2
:10067000008009E0DFF82081D8F8008028EA00082F
:10068000DFF81491C9F80080D1F8048008F400382C
:10069000B8F5003F10D1DFF8008108F10408D8F860
:1006A000008048EA0008DFF8F09000E05AE009F125
:1006B0000409C9F800800DE0DFF8DC8008F10408C7
:1006C000D8F8008028EA0008DFF8CC9009F1040986
:1006D000C9F80080D1F8048008F48018B8F5801FAC
:1006E0000ED1DFF8B48008F10808D8F8008048EA95
:1006F0000008DFF8A49009F10809C9F800800DE0AE
:10070000DFF8948008F10808D8F8008028EA00088B
:10071000DFF8849009F10809C9F80080D1F8048055
:1007200008F40018B8F5001F0ED1DFF86C8008F14E
:100730000C08D8F8008048EA0008DFF85C9009F15E
:100740000C09C9F800800DE0DFF84C8008F10C08B6
:10075000D8F8008028EA0008DFF83C9009F10C097D
:10076000C9F80080521CD1F8008028FA02F8B8F1CC
:10077000000F7FF489AEBDE8F8870000000011107B
:100780000010024000080140000C01400010014030
:1007900000140140080001400004014001480068C5
:1007A000704700000C0000200148006870470000FE
:1007B000E8F7FF1F0148006870470000ECF7FF1FD3
:1007C0000148006870470000F0F7FF1F0348006809
:1007D0000349097808440149086070470C0000206B
:1007E0001400002010B50848006840F010000649C9
:1007F0000860032000F0A8F8002000F007F800F0DF
:100800002BF8002010BD00000020024070B5044607
:100810000E4800784FF47A71B1FBF0F00C4909688A
:10082000B1FBF0F5284600F00BFC08B1012070BDCB
:10083000102C07D200222146501E00F047F8054830
:10084000046001E00120F2E70020F0E7140000203E
:10085000180000201000002008B500BF1148806972
:1008600040F001000F4988610846806900F00100EE
:10087000009000BF00BF00BF0846C06940F0805034
:10088000C8610846C06900F08050009000BF00BFFA
:1008900000BF0549486820F0E06040F00070486003
:1008A00000BF08BD0010024000000140014608469C
:1008B000002809DB00F01F0301229A4043099B0036
:1008C00003F1E023C3F8002100BF70472DE9F05F7A
:1008D00080460D461646002701F0E8FB07463946DC
:1008E0002A46334601F00700C0F1070ABAF1040FA7
:1008F00002D94FF0040A01E0C0F1070AD14600F125
:10090000040ABAF1070F02D24FF0000A01E0A0F189
:10091000030AD4464FF0010A0AFA09FAAAF1010AB9
:100920000AEA020A0AFA0CFA4FF0010B0BFA0CFB66
:10093000ABF1010B0BEA030B4AEA0B0421464046DC
:1009400001F0BCFBBDE8F09F00BF00F00702064BC2
:1009500019684FF6FF031940044B0B4343EA022189
:10096000014B196000BF70470CED00E00000FA0574
:1009700070B504460D460CB9012070BD5A48006898
:1009800000F00700A8420ED25748006820F0070088
:100990002843554908600846006800F00700A8424F
:1009A00001D00120E9E7207800F0020002281DD1E3
:1009B000207800F00400042805D14C48406840F439
:1009C000E0604A494860207800F00800082805D116
:1009D0004648406840F46050444948604348406895
:1009E00020F0F000A168084340494860207800F0FA
:1009F000010078B36068012806D13C48006800F423
:100A0000003090B90120B8E76068022806D1374865
:100A1000006800F0007040B90120AEE7334800687C
:100A200000F0020008B90120A7E73048406820F034
:100A30000300616808432D494860FFF7AFFE064692
:100A400009E0FFF7ABFE801B41F28831884202D9F2
:100A5000032092E707E02548406800F00C00616839
:100A6000B0EB810FEDD12048006800F00700A842EC
:100A70000ED91D48006820F0070028431A49086075
:100A80000846006800F00700A84201D0012074E782
:100A9000207800F00400042807D11448406820F4AE
:100AA000E060E168084311494860207800F00800E0
:100AB000082808D10D48406820F46050216940EAB8
:100AC000C1000A49486000F03FF808494968C1F38D
:100AD0000311074A515CC84006490860064800688F
:100AE000FFF794FE002048E700200240001002407B
:100AF000C8250008180000201000002001480068E8
:100B0000704700001800002000B5FFF7F7FF044908
:100B10004968C1F30221034A515CC84000BD00008E
:100B200000100240D825000800B5FFF7E7FF044990
:100B30004968C1F3C221034A515CC84000BD0000AE
:100B400000100240D8250008F0B585B00FF26C0CFB
:100B50009CE8E01001A8A0E8E0101CA52D68009515
:100B600000210022002300240020194D696801F0B3
:100B70000C05F5B1042D02D0082D19D101E015485E
:100B800019E001ADC1F38346AC5D01F4803555B188
:100B90000F4D6D68C5F340451DF805200D4D6543AB
:100BA000B5FBF2F302E00C4D04FB05F3184602E03E
:100BB00000BF084800BF00BF05B0F0BD0203040538
:100BC000060708090A0B0C0D0E0F10100102000099
:100BD0000010024000127A0000093D00F8B50446FA
:100BE0000CB90120F8BD207800F00100002878D071
:100BF000F848406800F00C0004280CD0F548406824
:100C000000F00C00082811D1F248406800F4803050
:100C1000B0F5803F0AD1EF48006800F400300028AA
:100C20005FD0606800285CD10120DBE700BF60680E
:100C3000B0F5803F06D1E748006840F48030E549D0
:100C4000086028E0606858B9E248006820F4803005
:100C5000E04908600846006820F4802008601AE037
:100C60006068B0F5A02F0BD1DA48006840F480200E
:100C7000D84908600846006840F4803008600AE0FF
:100C8000D448006820F48030D249086008460068E3
:100C900020F48020086000BF606888B1FFF77EFD07
:100CA000054606E0FFF77AFD401B642801D90320C2
:100CB00098E7C848006800F400300028F2D010E03F
:100CC000FFF76CFD054606E0FFF768FD401B642852
:100CD00001D9032086E7BF48006800F400300028EF
:100CE000F2D1207800F00200022857D1B9484068BC
:100CF00000F00C0050B1B748406800F00C00082824
:100D000018D1B448406800F4803098B9B148006800
:100D100000F0020020B12069012801D0012061E724
:100D2000AC48006820F0F800616940EAC100A949B8
:100D3000086033E02069E8B10120A7490860FFF7A7
:100D40002DFD054606E0FFF729FD401B022801D9CD
:100D5000032047E79F48006800F002000028F2D017
:100D60009C48006820F0F800616940EAC100994998
:100D7000086013E0002098490860FFF70FFD054662
:100D800006E0FFF70BFD401B022801D9032029E7ED
:100D90009048006800F002000028F2D1207800F0AE
:100DA000080008282DD1A069B8B101208B4908603E
:100DB000FFF7F4FC054606E0FFF7F0FC401B0228B5
:100DC00001D903200EE78348406A00F002000028A2
:100DD000F2D0012000F0EEFE13E000207F49086011
:100DE000FFF7DCFC054606E0FFF7D8FC401B0228B5
:100DF00001D90320F6E67748406A00F00200002897
:100E0000F2D1207800F00400042873D10027714843
:100E1000C06900F0805070B900BF6E48C06940F0F2
:100E200080506C49C8610846C06900F0805000904D
:100E300000BF00BF01276A48006800F48070B0B9A5
:100E40006748006840F4807065490860FFF7A6FCB9
:100E5000054606E0FFF7A2FC401B642801D90320E9
:100E6000C0E65F48006800F480700028F2D000BF40
:100E7000E068012806D15748006A40F00100554952
:100E8000086227E0E06858B95248006A20F0010083
:100E9000504908620846006A20F00400086219E020
:100EA000E06805280BD14B48006A40F0040049492E
:100EB00008620846006A40F0010008620AE04548FE
:100EC000006A20F00100434908620846006A20F0E9
:100ED0000400086200BFE068A0B1FFF75FFC0546B0
:100EE00009E0FFF75BFC401B41F28831884202D9E0
:100EF000032077E622E03748006A00F0020000286D
:100F0000EFD012E0FFF74AFC054608E0FFF746FC89
:100F1000401B41F28831884201D9032062E62D4806
:100F2000006A00F002000028F0D1012F05D1294805
:100F3000C06920F080502749C86100BFE069C8B38C
:100F40002448406800F00C00082860D0E0690228BE
:100F500048D1002020490866FFF720FC054606E03E
:100F6000FFF71CFC401B022801D903203AE6194870
:100F7000006800F000700028F2D1206AB0F5803FD0
:100F800007D11448406820F40030A1680843114993
:100F90004860D4E9080108430E49496821F47411F6
:100FA00008430C49486001200B490866FFF7F6FB2F
:100FB000054607E03DE0FFF7F1FB401B022801D9A1
:100FC00003200FE60348006800F000700028F2D00C
:100FD0002FE0000000100240000042428004424224
:100FE00000700040002014490866FFF7D7FB054653
:100FF00006E0FFF7D3FB401B022801D90320F1E5EF
:101000000E48006800F000700028F2D111E0E0699D
:10101000012800D1E6E50948466806F48031206AD7
:10102000814204D106F47011606A814201D001202E
:10103000D8E50020D6E50000000042420010024042
:1010400070B504462546681EB0F1807F01D30120AB
:101050000FE0681E4FF0E02148610F214FF0FF3094
:1010600001F02CF800204FF0E02188610720086192
:10107000002070BD7047704730B502460B4600BF78
:1010800092F83C00012801D1022030BD012082F8F5
:101090003C0000BF022082F83D00106844681068E0
:1010A000816824F070041868044310684460104D8F
:1010B0001068A8420BD01068B0F1804F07D00D4DDA
:1010C0001068A84203D00C4D1068A84205D121F049
:1010D00080015868014310688160012082F83D005A
:1010E00000BF002082F83C0000BF00BFCDE7000039
:1010F000002C0140000400400008004010B50446E8
:101100000CB9012010BD94F83D0028B9002084F8E6
:101110003C00204600F026F8022084F83D00211D06
:10112000206800F0C9FD012084F8460000BF84F863
:101130003E0001213F20015540200155412001552D
:1011400000BF00BF012084F8420043200155442025
:1011500001554520015500BF012084F83D000020C5
:10116000D0E7000038B504460D492068884215D103
:1011700000BF0C48806940F400600A498861084655
:10118000806900F40060009000BF00BF00220121D0
:101190001920FFF79BFB1920FFF788FB38BD0000E3
:1011A000002C014000100240014691F83D0001284A
:1011B00001D001207047022081F83D000868C06816
:1011C00040F001000B68D860124B086898420BD0C1
:1011D0000868B0F1804F07D00F4B0868984203D0E1
:1011E0000E4B086898420CD10868806800F007022E
:1011F000062A0CD00868006840F001000B681860EF
:1012000005E00868006840F001000B6818600020E5
:10121000D0E70000002C014000040040000800401E
:101220002DE9F04104460D4600BF94F83C0001282A
:1012300002D10220BDE8F081012084F83C0000BF0B
:10124000022084F83D002068866826F0770626F4A0
:101250007F46206886602868502833D00CDC202820
:1012600050D004DC00284BD0102851D149E0302860
:1012700049D040284CD139E060282DD0702807D0C3
:10128000B0F5805F03D0B0F5005F41D10DE040E0E4
:10129000D5E902136A68206800F048FD2068866876
:1012A00046F077062068866033E0D5E902136A6865
:1012B000206800F03BFD2068806840F48040216891
:1012C000886026E0EA686968206800F043FD5021E4
:1012D000206800F036FD1CE0EA686968206800F0CC
:1012E0004CFD6021206800F02CFD12E0EA6869687E
:1012F000206800F02FFD4021206800F022FD08E06A
:1013000000BF00BF00BF2968206800F01AFD00E0A0
:1013100000BF00BF012084F83D0000BF002084F81A
:101320003C0000BF00BF85E7704710B50446206849
:101330000069C0F34000D8B12068C068C0F3400025
:10134000B0B16FF0020021680861012020772068A9
:10135000806900F0030018B12046FFF7E5FF05E0C3
:10136000204600F0ADF8204600F0ABF800202077D2
:1013700020680069C0F38000D8B12068C068C0F35D
:101380008000B0B16FF0040021680861022020776E
:101390002068806900F4407018B12046FFF7C4FF50
:1013A00005E0204600F08CF8204600F08AF8002086
:1013B000207720680069C0F3C000D8B12068C068F9
:1013C000C0F3C000B0B16FF00800216808610420CC
:1013D00020772068C06900F0030018B12046FFF7AD
:1013E000A3FF05E0204600F06BF8204600F069F806
:1013F0000020207720680069C0F30010D8B1206871
:10140000C068C0F30010B0B16FF01000216808612F
:10141000082020772068C06900F4407018B1204689
:10142000FFF782FF05E0204600F04AF8204600F072
:1014300048F8002020772068006900F0010058B1CA
:101440002068C06800F0010030B16FF00100216831
:101450000861204600F036F820680069C0F3C0102B
:1014600058B12068C068C0F3C01030B16FF0800080
:10147000216808612046FFF7FDFD20680069C0F380
:10148000801058B12068C068C0F3801030B16FF090
:10149000400021680861204600F015F820680069C6
:1014A000C0F3401058B12068C068C0F3401030B19C
:1014B0006FF02000216808612046FFF7DCFD10BDB9
:1014C0007047704770477047704700002DE9F0473C
:1014D0000446206805682068C668206847694FF0A0
:1014E0000008C14605F00F08B8F1000F0AD105F059
:1014F000200038B106F0200020B1204600F07BFC2F
:10150000BDE8F087B8F1000F71D007F0010018B9FD
:1015100006F4907000286AD005F0010030B106F49E
:10152000807018B1E06B40F00100E06305F004004A
:1015300030B107F0010018B1E06B40F00200E06349
:1015400005F0020030B107F0010018B1E06B40F087
:101550000400E06305F0080048B106F0200010B96F
:1015600007F0010018B1E06B40F00800E063E06BA9
:1015700068B305F0200028B106F0200010B1204625
:1015800000F039FC20684069C0F38019E06B00F07E
:10159000080010B9B9F1000F22D0204600F00BFC72
:1015A0002068406900F04000B0B12068406920F038
:1015B000400021684861606B50B11848616B486316
:1015C000606BFEF7EFFE10B1606B416B88470CE07B
:1015D0002046FFF779FF08E02046FFF775FF04E09B
:1015E0002046FFF771FF0020E06389E7FFE705F081
:1015F000800030B106F0800018B1204600F0CAFC2F
:101600007EE705F0400030B106F0400018B12046FA
:1016100000F0E1FB74E700BF72E70000A31D0008C3
:1016200010B504460CB9012010BDA06900B100E05E
:1016300000BF94F8390028B9002084F8380020460B
:1016400000F028F8242084F839002068C06820F4CD
:1016500000502168C860204600F01EFC2068006928
:1016600020F49040216808612068406920F02A0039
:10167000216848612068C06840F400502168C86053
:101680000020E063202084F8390084F83A0000202C
:10169000CAE7000010B586B004460020029003900F
:1016A0000490059055492068884237D100BF5448BE
:1016B000806940F48040524988610846806900F49E
:1016C0008040019000BF00BF00BF0846806940F025
:1016D000040088610846806900F00400019000BFA2
:1016E00000BF48150290022003900320059002A934
:1016F0004448FEF7C3FE4FF4806002900020039040
:10170000049002A93F48FEF7B9FE002202212520DD
:10171000FFF7DCF82520FFF7C9F86DE03A492068AB
:10172000884236D100BF3648C06940F400303449A1
:10173000C8610846C06900F40030019000BF00BFD6
:1017400000BF0846806940F004008861084680694F
:1017500000F00400019000BF00BF042002900220AE
:1017600003900320059002A92648FEF787FE082073
:10177000029000200390049002A92248FEF77EFE0A
:10178000002203212620FFF7A1F82620FFF78EF87C
:1017900032E01E49206888422ED100BF1848C06937
:1017A00040F480201649C8610846C06900F48020D2
:1017B000019000BF00BF00BF0846806940F00800EC
:1017C00088610846806900F00800019000BF00BFF2
:1017D00008150290022003900320059002A90C48EE
:1017E000FEF74CFE4FF4006002900020039004903E
:1017F00002A90748FEF742FE06B010BD00380140BE
:101800000010024000080140004400400048004031
:10181000000C014010B5034693F83A0020282FD160
:1018200001B10AB9012010BD00BF93F838000128AA
:1018300001D10220F7E7012083F8380000BF996248
:101840009A85DA850020D863222083F83A0000BF09
:10185000002083F8380000BF1868C06840F480702A
:101860001C68E0601868406940F001001C68606115
:101870001868C06840F020001C68E0600020D2E7D3
:101880000220D0E710B504462949206888424DD18E
:101890002848008868B928480078FF2809D12749D6
:1018A000244A1288885423480088401C2149088013
:1018B00037E020480088032820D11F4800781F49BE
:1018C0001C4A1288885408460078497808441B4905
:1018D00089780844C0B21949C978884208D00020E4
:1018E0001649C8708870487008701249088018E05E
:1018F00010480088401C0F49088012E00D480088FD
:10190000012803D00B48008802280AD10A48007831
:101910000A49084A1288885406480088401C05492C
:101920000880012204490648FFF774FF10BD00003B
:1019300000380140040000200600002000000020C4
:10194000740000202DE9F84F04460E4617469946CC
:101950004FF0000A94F8390020285AD106B117B97F
:101960000120BDE8F88F00BF94F83800012801D1AC
:101970000220F6E7012084F8380000BF0020E06371
:10198000212084F83900FEF709FF8246A784E78406
:10199000A068B0F5805F04D1206910B90025B04679
:1019A00002E035464FF0000800BF002084F8380000
:1019B00000BF1BE05346002280212046CDF8009056
:1019C00000F018FB08B10320CBE745B9B8F80000D8
:1019D000C0F308002168486008F1020803E0287895
:1019E000216848606D1CE08C401EE084E08C00287B
:1019F000E0D15346002240212046CDF8009000F06F
:101A0000F9FA08B10320ACE7202084F8390000205F
:101A1000A7E70220A5E7704700BFFEE708B500BFB3
:101A20001A48806940F010001849886108468069AA
:101A300000F01000009000BF00BF00BF08468069A2
:101A400040F0200088610846806900F02000009086
:101A500000BF00BF00BF0846806940F004008861F5
:101A60000846806900F00400009000BF00BF00BF7E
:101A70000846806940F0080088610846806900F0E7
:101A80000800009000BF00BF08BD00000010024029
:101A900000B587B000200390049005900690019057
:101AA00002901548154908604720486000211348F6
:101AB000816040F2E731C1600021016141618161D3
:101AC000FFF71CFB08B1FEF769FC4FF48050039050
:101AD00003A90A48FFF7A4FB08B1FEF75FFC00204A
:101AE0000190029001A90548FFF7C6FA08B1FEF778
:101AF00055FC07B000BD0000002C01402C00002068
:101B000010B50B480B4908604FF41650486000218F
:101B100008488160C16001610C214161002181613F
:101B2000C161FFF77DFD08B1FEF738FC10BD000074
:101B3000003801407400002010B50B480B490860C4
:101B40004FF4E1304860002108488160C1600161C4
:101B50000C21416100218161C161FFF761FD08B184
:101B6000FEF71CFC10BD000000440040B400002043
:101B700010B50B480B4908604FF4E1304860002174
:101B800008488160C16001610C21416100218161CF
:101B9000C161FFF745FD08B1FEF700FC10BD000074
:101BA00000480040F400002000BFFEE700BFFEE751
:101BB0007047000008B508490968C9084FF47A72EF
:101BC000B1FBF2F14143009100BF00BF00994A1EF2
:101BD00000920029F9D108BD18000020704710B507
:101BE000FEF7F4FD10BD00B58FB0282105A8FEF763
:101BF000B2FA14216846FEF7AEFA012005900004FF
:101C00000690002007900120099002200C90C1034B
:101C10000D914FF4E0110E9105A8FEF7DFFF08B11A
:101C2000FEF7BCFB0F2000900220019000200290E4
:101C30004FF4806003900020049002216846FEF774
:101C400097FE08B1FEF7AAFB0FB000BD7047000079
:101C500010B516480088401C00B214490880084698
:101C6000B0F9000041F2883190FBF1F201FB120063
:101C700018B90F48FEF7D6FA13E00C48B0F9000087
:101C800041F2243190FBF1F201FB120048B1074808
:101C9000B0F9000042F21071884202DD00200349D1
:101CA00008800448FFF741FB10BD00000A00002037
:101CB000000000202C00002010B50268184B98424C
:101CC00008D0B0F1804F05D0164B984202D0164B89
:101CD000984203D122F070024B681A43104B98428D
:101CE00008D0B0F1804F05D00E4B984202D00E4B79
:101CF000984203D122F44072CB681A4322F0800349
:101D00004C6943EA040202608B68C3620B68836219
:101D1000034B984201D10B6903630123436110BD5A
:101D2000002C0140000400400008004030B50C4683
:101D3000816821F47F4142EA0325254329438160DC
:101D400030BD0A46816821F0700142F00703194353
:101D50008160704730B50B461446026A056A25F06B
:101D600001050562816921F0F00141EA041122F0C8
:101D70000A021A438161026230BD30B50B46144637
:101D8000056A25F0100505628169026A21F4704137
:101D900041EA043122F0A00242EA031281610262A8
:101DA00030BD70B505466C6A0020E085E0842046B1
:101DB000FFF78AFB70BD0168C96821F49071026861
:101DC000D1600168496921F0010102685161202157
:101DD00080F83A10704710B504462068C06820F0BB
:101DE00040002168C860202084F839002046FFF7B1
:101DF00012FE002010BD70B5044694F83A00222867
:101E000047D1A068B0F5805F0CD1206950B900259A
:101E1000A66A20684068C0F308003080A06A801C71
:101E2000A06215E0A56A0026A068B0F5805F03D027
:101E3000A06828B9206918B920684068287004E0B3
:101E40002068406800F07F002870A06A401CA062F3
:101E5000E08D401E80B2E085C8B92068C06820F0DF
:101E600020002168C8602068C06820F48070216864
:101E7000C8602068406920F0010021684861202086
:101E800084F83A002046FFF7FDFC002070BD0020DA
:101E9000FCE70220FAE7000070B5044621680969F2
:101EA00021F44051E2681143226811612269A1685E
:101EB0001143626941EA02052168C96841F20C6276
:101EC000914329432268D1602168496921F4407116
:101ED000A2691143226851612D4A2168914202D1C1
:101EE000FEF722FE01E0FEF70FFE00EBC00101EB62
:101EF000001162689200B1FBF2F100EBC00202EB4C
:101F0000001263689B00B2FBF3F26423B2FBF3F2AE
:101F100002EBC20303EB0212A1EB8201322202EBBD
:101F200001116422B1FBF2F101F0F00100EBC002FB
:101F300002EB001263689B00B2FBF3F26423B2FB76
:101F4000F3F201EB021200EBC00101EB0011636838
:101F50009B00B1FBF3F100EBC00303EB00136668D9
:101F6000B600B3FBF6F36426B3FBF6F303EBC3064C
:101F700006EB0313A1EB8301322303EB011164236E
:101F8000B1FBF3F101F00F0111442268916070BDC3
:101F900000380140014691F83900212828D188688D
:101FA000B0F5805F0BD1086948B90A6A1088C0F3A0
:101FB00008000B685860086A801C086205E00B6A1C
:101FC000581C086218780B685860C88C401E80B294
:101FD000C88458B90868C06820F080000B68D860D1
:101FE0000868C06840F040000B68D8600020704767
:101FF0000220FCE72DE9F04104460D4617469846BD
:10200000069E21E0701CF8B12EB1FEF7C7FBA0EBD5
:102010000800B04218D92068C06820F4D070216848
:10202000C8602068406920F00100216848612020D4
:1020300084F8390084F83A0000BF002084F83800A2
:1020400000BF0320BDE8F081206800682840A84256
:1020500001D1012000E00020B842D3D00020F1E7F8
:1020600010B50248FFF732FA10BD000074000020DE
:1020700010B50248FFF72AFA10BD0000B400002096
:1020800000BFFEE70FB4084B10B504A902AA0398DD
:1020900000F038F8044602A9002000F05EFA20465D
:1020A00010BC5DF814FB00005B25000802480068C6
:1020B000C0F30220704700000CED00E010B50028CE
:1020C00004DB0A07130E054A135406E00A07140E30
:1020D000034A00F00F031B1FD45410BD00E400E0BE
:1020E00018ED00E002E008C8121F08C1002AFAD16A
:1020F00070477047002001E001C1121F002AFBD188
:10210000704700002DE9FF4F8DB00F4605460026B1
:1021100006E025280BD0DDE90F1290476D1C761CD8
:1021200028780028F5D111B03046BDE8F08F0024A2
:10213000A246A1460122E94900E0044315F8013F07
:10214000203B02FA03F00842F7D128782A2810D061
:102150006FF02F022878A0F13001092914D80AEB7A
:102160008A0102EB410144F0020400EB010A6D1CFC
:10217000F0E701CF5FEA000A03D544F40054CAF146
:10218000000A44F002046D1C28782E2817D115F897
:10219000010F44F004042A280ED06FF02F02287893
:1021A000A0F1300109290AD809EB890102EB4101AC
:1021B00000EB01096D1CF2E757F8049B6D1C2878B1
:1021C0006C280FD006DC4C2817D068280DD06A2860
:1021D00014D104E0742810D07A280FD10DE044F413
:1021E00000140AE044F4801401E044F440146978D7
:1021F000814202D104F580146D1C6D1C28786E2874
:102200001ED00CDC632830D004DC00288BD058288A
:1022100011D19FE0642867D069280CD164E073284D
:102220002DD004DC6F2872D0702804D194E075287A
:102230006ED078286DD0DDE90F129047761C4BE107
:10224000C4F30250022806D0032809D0042801CF85
:1022500009D0066040E101CFF117C0E900613BE120
:1022600001CF068038E1067036E117F8040B8DF8CF
:10227000000000208DF80100EB46012003E057F834
:1022800004BB4FF0FF3061074FF0000102D40DE0B6
:1022900008F10101884649450FDA8045F8DB1BF853
:1022A00008100029F4D108E008F1010188468142B4
:1022B000FADB1BF808100029F6D1DDE90F23AAEBA1
:1022C00008008146214600F031F9304400EB080651
:1022D00004E0DDE90F121BF8010B9047B8F101088B
:1022E000F7D221464846F2E00A21C4F302524FF0E9
:1022F000000B0891022A04D001CFC117032A09D08C
:102300000AE0FF1D27F00707F7E8020108E02CE0CC
:102310001EE01FE000B2C117042A01D140B2C1176C
:10232000021E71F1000206DA0023D0EB030063EB1A
:1023300001012D2202E0220504D52B228DF8242054
:10234000012203E0E20701D02022F7E7904653E0A4
:102350000A210BE0102109E010214FF0000B44F09E
:1023600004044FF00809089103E008214FF0000B26
:102370000891C4F30252022A04D001CF0021032A9B
:1023800006D006E0FF1D27F00707F7E8020103E08B
:1023900080B2042A00D1C0B24FF0000822072BD52A
:1023A0002A78702A07D0DDF820C08CF0100C5CEA87
:1023B0000B0C05D00EE040228DF82420012208E00D
:1023C00050EA010306D030238DF824308DF8252003
:1023D00002229046089B83F0080353EA0B030BD1BB
:1023E00050EA010201D1620706D530228DF824207F
:1023F0004FF00108A9F101092A78582A04D038A21F
:102400000B9208AA0A920BE03AA2F9E75B46089AF7
:10241000FDF7B3FE0B9B9B5C0A9A521E0A92137047
:1024200050EA0102F2D10A98ADEB000000F1200B56
:10243000600702D524F4803401E04FF00109D9454A
:1024400002DDA9EB0B0000E0002000EB0B01414492
:102450000890AAEB010AE00306D4DDE90F23214628
:10246000504600F063F806444FF0000908E009A95F
:1024700011F80900DDE90F12904709F10109761CF6
:10248000C145F4DBE0030CD5DDE90F2321465046BE
:1024900000F04CF8064404E0DDE90F1230209047CC
:1024A000761C0899481E08900029F5DC08E00A9877
:1024B0000A990078491C0A91DDE90F129047761CB1
:1024C000BBF10001ABF1010BF1DC21465046DDE927
:1024D0000F2300F019F806446D1C21E609280100BD
:1024E000303132333435363738396162636465668A
:1024F000000000003031323334353637383941424C
:1025000043444546000000002DE9F0410446002503
:102510001E461746880404D405E039462020B047FB
:102520006D1C641EF9D52846BDE8F0812DE9F04107
:10253000044600251E469046C80301D5302700E01A
:102540002027880404D505E041463846B0476D1C75
:10255000641EF9D52846BDE8F0810A68531C0B605B
:10256000107070470146012070470000FEF73AF9ED
:10257000FFF739FBFFF752FAFFF78AFAFFF7C0FAC5
:10258000FFF7DAFAFFF7F4FAFEF70EF90A490860E6
:10259000FEF710F908494860FEF712F9064988600D
:1025A000012206490648FFF735F90648FEF7FCFD0B
:1025B000FDF7EEFE00BFFEE7200000200600002031
:1025C000740000202C00002000000000000000002B
:1025D00001020304060708090000000001020304C9
:1025E000002600080000002020000000E420000871
:1025F0002026000820000020D8050000F420000854
:1026000000000000000000000000000000000000CA
:1026100010000000010000000024F4000000000091
:04000005080000ED02
:00000001FF
